{"contracts/SolarPunkCoin.sol":{"SolarPunkCoin":{"abi":[{"inputs":[],"stateMutability":"nonpayable","type":"constructor"},{"inputs":[],"name":"AccessControlBadConfirmation","type":"error"},{"inputs":[{"internalType":"address","name":"account","type":"address"},{"internalType":"bytes32","name":"neededRole","type":"bytes32"}],"name":"AccessControlUnauthorizedAccount","type":"error"},{"inputs":[{"internalType":"address","name":"spender","type":"address"},{"internalType":"uint256","name":"allowance","type":"uint256"},{"internalType":"uint256","name":"needed","type":"uint256"}],"name":"ERC20InsufficientAllowance","type":"error"},{"inputs":[{"internalType":"address","name":"sender","type":"address"},{"internalType":"uint256","name":"balance","type":"uint256"},{"internalType":"uint256","name":"needed","type":"uint256"}],"name":"ERC20InsufficientBalance","type":"error"},{"inputs":[{"internalType":"address","name":"approver","type":"address"}],"name":"ERC20InvalidApprover","type":"error"},{"inputs":[{"internalType":"address","name":"receiver","type":"address"}],"name":"ERC20InvalidReceiver","type":"error"},{"inputs":[{"internalType":"address","name":"sender","type":"address"}],"name":"ERC20InvalidSender","type":"error"},{"inputs":[{"internalType":"address","name":"spender","type":"address"}],"name":"ERC20InvalidSpender","type":"error"},{"inputs":[],"name":"EnforcedPause","type":"error"},{"inputs":[],"name":"ExpectedPause","type":"error"},{"inputs":[],"name":"InvalidInitialization","type":"error"},{"inputs":[],"name":"NotInitializing","type":"error"},{"inputs":[{"internalType":"address","name":"owner","type":"address"}],"name":"OwnableInvalidOwner","type":"error"},{"inputs":[{"internalType":"address","name":"account","type":"address"}],"name":"OwnableUnauthorizedAccount","type":"error"},{"anonymous":false,"inputs":[{"indexed":true,"internalType":"address","name":"owner","type":"address"},{"indexed":true,"internalType":"address","name":"spender","type":"address"},{"indexed":false,"internalType":"uint256","name":"value","type":"uint256"}],"name":"Approval","type":"event"},{"anonymous":false,"inputs":[{"indexed":false,"internalType":"bool","name":"isStressed","type":"bool"}],"name":"GridStressToggled","type":"event"},{"anonymous":false,"inputs":[{"indexed":false,"internalType":"uint64","name":"version","type":"uint64"}],"name":"Initialized","type":"event"},{"anonymous":false,"inputs":[{"indexed":false,"internalType":"uint256","name":"price","type":"uint256"},{"indexed":false,"internalType":"uint256","name":"timestamp","type":"uint256"}],"name":"OraclePriceUpdated","type":"event"},{"anonymous":false,"inputs":[{"indexed":true,"internalType":"address","name":"previousOwner","type":"address"},{"indexed":true,"internalType":"address","name":"newOwner","type":"address"}],"name":"OwnershipTransferred","type":"event"},{"anonymous":false,"inputs":[{"indexed":false,"internalType":"string","name":"paramName","type":"string"},{"indexed":false,"internalType":"uint256","name":"newValue","type":"uint256"}],"name":"ParameterUpdated","type":"event"},{"anonymous":false,"inputs":[{"indexed":false,"internalType":"address","name":"account","type":"address"}],"name":"Paused","type":"event"},{"anonymous":false,"inputs":[{"indexed":false,"internalType":"uint256","name":"newPrice","type":"uint256"},{"indexed":false,"internalType":"bool","name":"isMint","type":"bool"}],"name":"PegAdjusted","type":"event"},{"anonymous":false,"inputs":[{"indexed":true,"internalType":"bytes32","name":"role","type":"bytes32"},{"indexed":true,"internalType":"bytes32","name":"previousAdminRole","type":"bytes32"},{"indexed":true,"internalType":"bytes32","name":"newAdminRole","type":"bytes32"}],"name":"RoleAdminChanged","type":"event"},{"anonymous":false,"inputs":[{"indexed":true,"internalType":"bytes32","name":"role","type":"bytes32"},{"indexed":true,"internalType":"address","name":"account","type":"address"},{"indexed":true,"internalType":"address","name":"sender","type":"address"}],"name":"RoleGranted","type":"event"},{"anonymous":false,"inputs":[{"indexed":true,"internalType":"bytes32","name":"role","type":"bytes32"},{"indexed":true,"internalType":"address","name":"account","type":"address"},{"indexed":true,"internalType":"address","name":"sender","type":"address"}],"name":"RoleRevoked","type":"event"},{"anonymous":false,"inputs":[{"indexed":true,"internalType":"address","name":"from","type":"address"},{"indexed":false,"internalType":"uint256","name":"amount","type":"uint256"}],"name":"SPKBurned","type":"event"},{"anonymous":false,"inputs":[{"indexed":true,"internalType":"address","name":"to","type":"address"},{"indexed":false,"internalType":"uint256","name":"amount","type":"uint256"},{"indexed":false,"internalType":"uint256","name":"kwhBacked","type":"uint256"},{"indexed":false,"internalType":"uint256","name":"fee","type":"uint256"}],"name":"SPKMinted","type":"event"},{"anonymous":false,"inputs":[{"indexed":true,"internalType":"address","name":"user","type":"address"},{"indexed":false,"internalType":"uint256","name":"amount","type":"uint256"}],"name":"SPKRedeemed","type":"event"},{"anonymous":false,"inputs":[{"indexed":true,"internalType":"uint256","name":"kwhAmount","type":"uint256"},{"indexed":false,"internalType":"uint256","name":"timestamp","type":"uint256"}],"name":"SurplusRecorded","type":"event"},{"anonymous":false,"inputs":[{"indexed":true,"internalType":"address","name":"from","type":"address"},{"indexed":true,"internalType":"address","name":"to","type":"address"},{"indexed":false,"internalType":"uint256","name":"value","type":"uint256"}],"name":"Transfer","type":"event"},{"anonymous":false,"inputs":[{"indexed":false,"internalType":"address","name":"account","type":"address"}],"name":"Unpaused","type":"event"},{"inputs":[],"name":"DEFAULT_ADMIN_ROLE","outputs":[{"internalType":"bytes32","name":"","type":"bytes32"}],"stateMutability":"view","type":"function"},{"inputs":[],"name":"MINTER_ROLE","outputs":[{"internalType":"bytes32","name":"","type":"bytes32"}],"stateMutability":"view","type":"function"},{"inputs":[],"name":"ORACLE_ROLE","outputs":[{"internalType":"bytes32","name":"","type":"bytes32"}],"stateMutability":"view","type":"function"},{"inputs":[],"name":"PAUSER_ROLE","outputs":[{"internalType":"bytes32","name":"","type":"bytes32"}],"stateMutability":"view","type":"function"},{"inputs":[{"internalType":"address","name":"owner","type":"address"},{"internalType":"address","name":"spender","type":"address"}],"name":"allowance","outputs":[{"internalType":"uint256","name":"","type":"uint256"}],"stateMutability":"view","type":"function"},{"inputs":[{"internalType":"address","name":"spender","type":"address"},{"internalType":"uint256","name":"value","type":"uint256"}],"name":"approve","outputs":[{"internalType":"bool","name":"","type":"bool"}],"stateMutability":"nonpayable","type":"function"},{"inputs":[{"internalType":"address","name":"account","type":"address"}],"name":"balanceOf","outputs":[{"internalType":"uint256","name":"","type":"uint256"}],"stateMutability":"view","type":"function"},{"inputs":[{"internalType":"uint256","name":"value","type":"uint256"}],"name":"burn","outputs":[],"stateMutability":"nonpayable","type":"function"},{"inputs":[{"internalType":"address","name":"account","type":"address"},{"internalType":"uint256","name":"value","type":"uint256"}],"name":"burnFrom","outputs":[],"stateMutability":"nonpayable","type":"function"},{"inputs":[],"name":"cumulativeSurplusKwh","outputs":[{"internalType":"uint256","name":"","type":"uint256"}],"stateMutability":"view","type":"function"},{"inputs":[],"name":"decimals","outputs":[{"internalType":"uint8","name":"","type":"uint8"}],"stateMutability":"view","type":"function"},{"inputs":[{"internalType":"uint256","name":"surplusKwh","type":"uint256"}],"name":"estimateMintAmount","outputs":[{"internalType":"uint256","name":"","type":"uint256"}],"stateMutability":"view","type":"function"},{"inputs":[],"name":"getPegDeviation","outputs":[{"internalType":"int256","name":"","type":"int256"}],"stateMutability":"view","type":"function"},{"inputs":[],"name":"getReserveRatio","outputs":[{"internalType":"uint256","name":"","type":"uint256"}],"stateMutability":"view","type":"function"},{"inputs":[{"internalType":"bytes32","name":"role","type":"bytes32"}],"name":"getRoleAdmin","outputs":[{"internalType":"bytes32","name":"","type":"bytes32"}],"stateMutability":"view","type":"function"},{"inputs":[{"internalType":"bytes32","name":"role","type":"bytes32"},{"internalType":"address","name":"account","type":"address"}],"name":"grantRole","outputs":[],"stateMutability":"nonpayable","type":"function"},{"inputs":[],"name":"gridStressed","outputs":[{"internalType":"bool","name":"","type":"bool"}],"stateMutability":"view","type":"function"},{"inputs":[{"internalType":"bytes32","name":"role","type":"bytes32"},{"internalType":"address","name":"account","type":"address"}],"name":"hasRole","outputs":[{"internalType":"bool","name":"","type":"bool"}],"stateMutability":"view","type":"function"},{"inputs":[{"internalType":"address","name":"daoTimeLock","type":"address"}],"name":"initializeDAOGovernance","outputs":[],"stateMutability":"nonpayable","type":"function"},{"inputs":[],"name":"integralError","outputs":[{"internalType":"int256","name":"","type":"int256"}],"stateMutability":"view","type":"function"},{"inputs":[],"name":"integralGain","outputs":[{"internalType":"uint256","name":"","type":"uint256"}],"stateMutability":"view","type":"function"},{"inputs":[],"name":"isPegStable","outputs":[{"internalType":"bool","name":"","type":"bool"}],"stateMutability":"view","type":"function"},{"inputs":[],"name":"lastOraclePrice","outputs":[{"internalType":"uint256","name":"","type":"uint256"}],"stateMutability":"view","type":"function"},{"inputs":[],"name":"lastOracleUpdate","outputs":[{"internalType":"uint256","name":"","type":"uint256"}],"stateMutability":"view","type":"function"},{"inputs":[],"name":"minReserveMarginPercent","outputs":[{"internalType":"uint256","name":"","type":"uint256"}],"stateMutability":"view","type":"function"},{"inputs":[{"internalType":"uint256","name":"surplusKwh","type":"uint256"},{"internalType":"address","name":"recipient","type":"address"}],"name":"mintFromSurplus","outputs":[{"internalType":"uint256","name":"","type":"uint256"}],"stateMutability":"nonpayable","type":"function"},{"inputs":[],"name":"mintingFee","outputs":[{"internalType":"uint256","name":"","type":"uint256"}],"stateMutability":"view","type":"function"},{"inputs":[],"name":"name","outputs":[{"internalType":"string","name":"","type":"string"}],"stateMutability":"view","type":"function"},{"inputs":[],"name":"oracleStalenessThreshold","outputs":[{"internalType":"uint256","name":"","type":"uint256"}],"stateMutability":"view","type":"function"},{"inputs":[],"name":"owner","outputs":[{"internalType":"address","name":"","type":"address"}],"stateMutability":"view","type":"function"},{"inputs":[],"name":"pause","outputs":[],"stateMutability":"nonpayable","type":"function"},{"inputs":[],"name":"paused","outputs":[{"internalType":"bool","name":"","type":"bool"}],"stateMutability":"view","type":"function"},{"inputs":[],"name":"pegBand","outputs":[{"internalType":"uint256","name":"","type":"uint256"}],"stateMutability":"view","type":"function"},{"inputs":[],"name":"pegTarget","outputs":[{"internalType":"uint256","name":"","type":"uint256"}],"stateMutability":"view","type":"function"},{"inputs":[],"name":"proportionalGain","outputs":[{"internalType":"uint256","name":"","type":"uint256"}],"stateMutability":"view","type":"function"},{"inputs":[{"internalType":"uint256","name":"amount","type":"uint256"}],"name":"redeemForEnergy","outputs":[{"internalType":"bool","name":"","type":"bool"}],"stateMutability":"nonpayable","type":"function"},{"inputs":[],"name":"redemptionFee","outputs":[{"internalType":"uint256","name":"","type":"uint256"}],"stateMutability":"view","type":"function"},{"inputs":[],"name":"renounceOwnership","outputs":[],"stateMutability":"nonpayable","type":"function"},{"inputs":[{"internalType":"bytes32","name":"role","type":"bytes32"},{"internalType":"address","name":"callerConfirmation","type":"address"}],"name":"renounceRole","outputs":[],"stateMutability":"nonpayable","type":"function"},{"inputs":[{"internalType":"bytes32","name":"role","type":"bytes32"},{"internalType":"address","name":"account","type":"address"}],"name":"revokeRole","outputs":[],"stateMutability":"nonpayable","type":"function"},{"inputs":[{"internalType":"bool","name":"isStressed","type":"bool"}],"name":"setGridStressed","outputs":[],"stateMutability":"nonpayable","type":"function"},{"inputs":[{"internalType":"address","name":"oracle","type":"address"},{"internalType":"bool","name":"shouldGrant","type":"bool"}],"name":"setOracleRole","outputs":[],"stateMutability":"nonpayable","type":"function"},{"inputs":[],"name":"supplyCap","outputs":[{"internalType":"uint256","name":"","type":"uint256"}],"stateMutability":"view","type":"function"},{"inputs":[{"internalType":"bytes4","name":"interfaceId","type":"bytes4"}],"name":"supportsInterface","outputs":[{"internalType":"bool","name":"","type":"bool"}],"stateMutability":"view","type":"function"},{"inputs":[],"name":"symbol","outputs":[{"internalType":"string","name":"","type":"string"}],"stateMutability":"view","type":"function"},{"inputs":[],"name":"totalRedeemed","outputs":[{"internalType":"uint256","name":"","type":"uint256"}],"stateMutability":"view","type":"function"},{"inputs":[],"name":"totalSupply","outputs":[{"internalType":"uint256","name":"","type":"uint256"}],"stateMutability":"view","type":"function"},{"inputs":[{"internalType":"address","name":"to","type":"address"},{"internalType":"uint256","name":"value","type":"uint256"}],"name":"transfer","outputs":[{"internalType":"bool","name":"","type":"bool"}],"stateMutability":"nonpayable","type":"function"},{"inputs":[{"internalType":"address","name":"from","type":"address"},{"internalType":"address","name":"to","type":"address"},{"internalType":"uint256","name":"value","type":"uint256"}],"name":"transferFrom","outputs":[{"internalType":"bool","name":"","type":"bool"}],"stateMutability":"nonpayable","type":"function"},{"inputs":[{"internalType":"address","name":"newOwner","type":"address"}],"name":"transferOwnership","outputs":[],"stateMutability":"nonpayable","type":"function"},{"inputs":[],"name":"unpause","outputs":[],"stateMutability":"nonpayable","type":"function"},{"inputs":[{"internalType":"uint256","name":"newBand","type":"uint256"},{"internalType":"uint256","name":"newPropGain","type":"uint256"},{"internalType":"uint256","name":"newIntGain","type":"uint256"}],"name":"updateControlParameters","outputs":[],"stateMutability":"nonpayable","type":"function"},{"inputs":[{"internalType":"uint256","name":"newMintFee","type":"uint256"},{"internalType":"uint256","name":"newRedeemFee","type":"uint256"}],"name":"updateFees","outputs":[],"stateMutability":"nonpayable","type":"function"},{"inputs":[{"internalType":"uint256","name":"newPrice","type":"uint256"}],"name":"updateOraclePriceAndAdjust","outputs":[{"internalType":"bool","name":"adjusted","type":"bool"}],"stateMutability":"nonpayable","type":"function"},{"inputs":[],"name":"usdcReserve","outputs":[{"internalType":"uint256","name":"","type":"uint256"}],"stateMutability":"view","type":"function"}],"evm":{"bytecode":{"linkReferences":{},"object":"6080604052670de0b6b3a7640000600781905566b1a2bc2ec50000600855662386f26fc100006009556611c37937e08000600a9081556000600b8190556103e8600c819055600d556b033b2e3c9fd0803ce8000000600e55600f92909255601082905562015180601155601282905560138290556014919091556015556016805460ff191690553480156200009357600080fd5b50336040518060400160405280600d81526020016c29b7b630b9283ab735a1b7b4b760991b8152506040518060400160405280600381526020016253504b60e81b8152508160039081620000e8919062000382565b506004620000f7828262000382565b5050506001600160a01b0381166200012957604051631e4fbdf760e01b81526000600482015260240160405180910390fd5b6200013481620001d0565b50620001426000336200022a565b506200016f7f9f2df0fed2c77648de5860a4cc508cd0818c85b8b8a1ab4ceeef8d981c8956a6336200022a565b506200019c7f68e79a7bf1e0bc45d0a330c573bc367f9cf464fd326078812f301165fbda4ef1336200022a565b50620001c97f65d7a28e3265b37a6474929f336521b332c1681b933f6cb9f3376673440d862a336200022a565b506200044e565b600580546001600160a01b03838116610100818102610100600160a81b031985161790945560405193909204169182907f8be0079c531659141344cd1fd0a4f28419497f9722a3daafe3b4186f6b6457e090600090a35050565b60008281526006602090815260408083206001600160a01b038516845290915281205460ff16620002d35760008381526006602090815260408083206001600160a01b03861684529091529020805460ff191660011790556200028a3390565b6001600160a01b0316826001600160a01b0316847f2f8788117e7eff1d82e926ec794901d17c78024a50270940304540a733656f0d60405160405180910390a4506001620002d7565b5060005b92915050565b634e487b7160e01b600052604160045260246000fd5b600181811c908216806200030857607f821691505b6020821081036200032957634e487b7160e01b600052602260045260246000fd5b50919050565b601f8211156200037d57600081815260208120601f850160051c81016020861015620003585750805b601f850160051c820191505b81811015620003795782815560010162000364565b5050505b505050565b81516001600160401b038111156200039e576200039e620002dd565b620003b681620003af8454620002f3565b846200032f565b602080601f831160018114620003ee5760008415620003d55750858301515b600019600386901b1c1916600185901b17855562000379565b600085815260208120601f198616915b828110156200041f57888601518255948401946001909101908401620003fe565b50858210156200043e5787850151600019600388901b60f8161c191681555b5050505050600190811b01905550565b6120a4806200045e6000396000f3fe608060405234801561001057600080fd5b506004361061035d5760003560e01c80636db79437116101d35780639648c22911610104578063d5391393116100a2578063e0e1141e1161007c578063e0e1141e146106c9578063e63ab1e9146106dc578063f2fde38b14610703578063f35dad401461071657600080fd5b8063d539139314610656578063d547741f1461067d578063dd62ed3e1461069057600080fd5b8063a217fddf116100de578063a217fddf1461061f578063a9059cbb14610627578063b5fbc7a01461063a578063b609d0e61461064d57600080fd5b80639648c229146106055780639ad70cc21461060d5780639cf5b4d61461061657600080fd5b806388174060116101715780638f770ad01161014b5780638f770ad0146105d85780639086169b146105e157806391d14854146105ea57806395d89b41146105fd57600080fd5b806388174060146105935780638cb545dd146105a65780638da5cb5b146105af57600080fd5b806379cc6790116101ad57806379cc6790146105665780638456cb591461057957806386952d0014610581578063876daf7e1461058a57600080fd5b80636db794371461052257806370a0823114610535578063715018a61461055e57600080fd5b80632f51cce0116102ad578063458f58151161024b57806356b6d0d51161022557806356b6d0d5146104fd5780635a64ad95146105055780635c975abb1461050e5780636a5809cc1461051957600080fd5b8063458f5815146104ce5780634e0c21c3146104d75780634e3b95fb146104ea57600080fd5b8063349f717311610287578063349f71731461049757806336568abe146104a05780633f4ba83a146104b357806342966c68146104bb57600080fd5b80632f51cce01461046c5780633011f2231461047f578063313ce5671461048857600080fd5b80631bc9a4501161031a57806323b872dd116102f457806323b872dd14610410578063248a9ca31461042357806326cfb7a4146104465780632f2ff15d1461045957600080fd5b80631bc9a450146103e55780631f45d0e4146103f257806321e12b13146103fb57600080fd5b806301ffc9a71461036257806306fdde031461038a57806307e2cea51461039f578063095ea7b3146103c2578063113cd6e8146103d557806318160ddd146103dd575b600080fd5b610375610370366004611c85565b61071f565b60405190151581526020015b60405180910390f35b610392610756565b6040516103819190611cb6565b6103b460008051602061204f83398151915281565b604051908152602001610381565b6103756103d0366004611d1b565b6107e8565b6103b4610800565b6002546103b4565b6016546103759060ff1681565b6103b460115481565b61040e610409366004611d55565b61082c565b005b61037561041e366004611d70565b6108d4565b6103b4610431366004611dac565b60009081526006602052604090206001015490565b61040e610454366004611dc5565b6108f8565b61040e610467366004611df8565b610989565b61040e61047a366004611e1b565b6109b4565b6103b460095481565b60405160128152602001610381565b6103b4600f5481565b61040e6104ae366004611df8565b610b72565b61040e610baa565b61040e6104c9366004611dac565b610bbc565b6103b4600d5481565b61040e6104e5366004611e47565b610bc9565b6103b46104f8366004611df8565b610bd1565b6103b4610ee6565b6103b4600c5481565b60055460ff16610375565b6103b460125481565b61040e610530366004611e62565b610f1e565b6103b4610543366004611e47565b6001600160a01b031660009081526020819052604090205490565b61040e611047565b61040e610574366004611d1b565b611059565b61040e61106e565b6103b460155481565b6103b460075481565b6103756105a1366004611dac565b6110a0565b6103b460135481565b60055461010090046001600160a01b03166040516001600160a01b039091168152602001610381565b6103b4600e5481565b6103b4600b5481565b6103756105f8366004611df8565b6111dd565b610392611208565b610375611217565b6103b460085481565b6103b4600a5481565b6103b4600081565b610375610635366004611d1b565b61126d565b6103b4610648366004611dac565b61127b565b6103b460105481565b6103b47f9f2df0fed2c77648de5860a4cc508cd0818c85b8b8a1ab4ceeef8d981c8956a681565b61040e61068b366004611df8565b6112c3565b6103b461069e366004611e84565b6001600160a01b03918216600090815260016020908152604080832093909416825291909152205490565b6103756106d7366004611dac565b6112e8565b6103b47f65d7a28e3265b37a6474929f336521b332c1681b933f6cb9f3376673440d862a81565b61040e610711366004611e47565b6113e2565b6103b460145481565b60006001600160e01b03198216637965db0b60e01b148061075057506301ffc9a760e01b6001600160e01b03198316145b92915050565b60606003805461076590611eae565b80601f016020809104026020016040519081016040528092919081815260200182805461079190611eae565b80156107de5780601f106107b3576101008083540402835291602001916107de565b820191906000526020600020905b8154815290600101906020018083116107c157829003601f168201915b5050505050905090565b6000336107f681858561141d565b5060019392505050565b600080600754600754600f546108169190611efe565b61082290612710611f25565b6107509190611f6b565b61084460008051602061204f833981519152336111dd565b61088d5760405162461bcd60e51b81526020600482015260156024820152744d7573742068617665204f5241434c455f524f4c4560581b60448201526064015b60405180910390fd5b6016805460ff19168215159081179091556040519081527fd5c34458e61328523166933dac07e7942970fb6d4ee8769782a49e4e3c10cb3e9060200160405180910390a150565b6000336108e285828561142a565b6108ed8585856114a3565b506001949350505050565b610900611502565b6001600160a01b03821661094f5760405162461bcd60e51b8152602060048201526016602482015275496e76616c6964206f7261636c65206164647265737360501b6044820152606401610884565b80156109715761096d60008051602061204f83398151915283610989565b5050565b61096d60008051602061204f833981519152836112c3565b6000828152600660205260409020600101546109a481611535565b6109ae838361153f565b50505050565b6109bc611502565b6000831180156109d4575067016345785d8a00008311155b610a0f5760405162461bcd60e51b815260206004820152600c60248201526b125b9d985b1a590818985b9960a21b6044820152606401610884565b60008211610a535760405162461bcd60e51b815260206004820152601160248201527024b73b30b634b210383937b81033b0b4b760791b6044820152606401610884565b60008111610a965760405162461bcd60e51b815260206004820152601060248201526f24b73b30b634b21034b73a1033b0b4b760811b6044820152606401610884565b60088390556009829055600a81905560408051818152600781830152661c1959d0985b9960ca1b606082015260208101859052905160008051602061202f8339815191529181900360800190a1604080518181526010818301526f383937b837b93a34b7b730b623b0b4b760811b606082015260208101849052905160008051602061202f8339815191529181900360800190a160408051818152600c818301526b34b73a32b3b930b623b0b4b760a11b606082015260208101839052905160008051602061202f8339815191529181900360800190a1505050565b6001600160a01b0381163314610b9b5760405163334bd91960e11b815260040160405180910390fd5b610ba582826115d3565b505050565b610bb2611502565b610bba611640565b565b610bc63382611692565b50565b610bc6611502565b6000610bfd7f9f2df0fed2c77648de5860a4cc508cd0818c85b8b8a1ab4ceeef8d981c8956a6336111dd565b610c415760405162461bcd60e51b81526020600482015260156024820152744d7573742068617665204d494e5445525f524f4c4560581b6044820152606401610884565b60165460ff1615610c945760405162461bcd60e51b815260206004820152601d60248201527f477269642073747265737365643a206d696e74696e67207061757365640000006044820152606401610884565b601154601054610ca49042611f99565b10610ce65760405162461bcd60e51b81526020600482015260126024820152714f7261636c65207072696365207374616c6560701b6044820152606401610884565b60008311610d2c5760405162461bcd60e51b81526020600482015260136024820152720537572706c7573206d757374206265203e203606c1b6044820152606401610884565b6001600160a01b038216610d765760405162461bcd60e51b8152602060048201526011602482015270125b9d985b1a59081c9958da5c1a595b9d607a1b6044820152606401610884565b6000610d8a84670de0b6b3a7640000611fac565b90506000612710600c5483610d9f9190611fac565b610da99190611fc3565b90506000610db78284611f99565b9050600e5481610dc660025490565b610dd09190611fd7565b1115610e145760405162461bcd60e51b815260206004820152601360248201527214dd5c1c1b1e4818d85c08195e18d959591959606a1b6044820152606401610884565b8560136000828254610e269190611fd7565b90915550610e36905085826116c8565b8115610e5757600554610e579061010090046001600160a01b0316836116c8565b857fac0d72b60cf325c568ddafa82b9a366e9493708024b6ff2045439ad1c04738de42604051610e8991815260200190565b60405180910390a260408051828152602081018890529081018390526001600160a01b038616907fda23212527d23ff11f61139471178901783ec61000dee1bae55888081e15f6579060600160405180910390a295945050505050565b6000610ef160025490565b600003610efe5750606490565b600254601254610f0f906064611fac565b610f199190611fc3565b905090565b610f26611502565b611388821115610f6c5760405162461bcd60e51b815260206004820152601160248201527009ad2dce840cccaca40e8dede40d0d2ced607b1b6044820152606401610884565b611388811115610fb45760405162461bcd60e51b81526020600482015260136024820152720a4cac8cacada40cccaca40e8dede40d0d2ced606b1b6044820152606401610884565b600c829055600d81905560408051818152600a81830152696d696e74696e6746656560b01b606082015260208101849052905160008051602061202f8339815191529181900360800190a160408051818152600d818301526c726564656d7074696f6e46656560981b606082015260208101839052905160008051602061202f8339815191529181900360800190a15050565b61104f611502565b610bba60006116fe565b61106482338361142a565b61096d8282611692565b7f65d7a28e3265b37a6474929f336521b332c1681b933f6cb9f3376673440d862a61109881611535565b610bc6611758565b60008082116110f15760405162461bcd60e51b815260206004820152601960248201527f52656465656d20616d6f756e74206d757374206265203e2030000000000000006044820152606401610884565b336000908152602081905260409020548211156111505760405162461bcd60e51b815260206004820152601860248201527f496e73756666696369656e742053504b2062616c616e636500000000000000006044820152606401610884565b6000612710600d54846111639190611fac565b61116d9190611fc3565b9050600061117b8285611f99565b90506111873385611692565b80601460008282546111999190611fd7565b909155505060405184815233907ffea316818ea9bd45a84c80d6b51052f158353c2507294bd40b0c0117826367209060200160405180910390a25060019392505050565b60009182526006602090815260408084206001600160a01b0393909316845291905290205460ff1690565b60606004805461076590611eae565b60008060085460075461122a9190611fd7565b9050600060085460075411611240576000611250565b6008546007546112509190611f99565b905080600f5410158015611266575081600f5411155b9250505090565b6000336107f68185856114a3565b60008061129083670de0b6b3a7640000611fac565b90506000612710600c54836112a59190611fac565b6112af9190611fc3565b90506112bb8183611f99565b949350505050565b6000828152600660205260409020600101546112de81611535565b6109ae83836115d3565b600061130260008051602061204f833981519152336111dd565b6113465760405162461bcd60e51b81526020600482015260156024820152744d7573742068617665204f5241434c455f524f4c4560581b6044820152606401610884565b6000821161138f5760405162461bcd60e51b81526020600482015260166024820152755072696365206d75737420626520706f73697469766560501b6044820152606401610884565b600f8290554260108190556040805184815260208101929092527f7bb53a16f0a956ec70e3aba1c9dcdd953de741292a17f213b0d38d24d6f476ba910160405180910390a161075082611795565b919050565b6113ea611502565b6001600160a01b03811661141457604051631e4fbdf760e01b815260006004820152602401610884565b610bc6816116fe565b610ba583838360016119e5565b6001600160a01b038381166000908152600160209081526040808320938616835292905220546000198110156109ae578181101561149457604051637dc7a0d960e11b81526001600160a01b03841660048201526024810182905260448101839052606401610884565b6109ae848484840360006119e5565b6001600160a01b0383166114cd57604051634b637e8f60e11b815260006004820152602401610884565b6001600160a01b0382166114f75760405163ec442f0560e01b815260006004820152602401610884565b610ba5838383611aba565b6005546001600160a01b03610100909104163314610bba5760405163118cdaa760e01b8152336004820152602401610884565b610bc68133611acd565b600061154b83836111dd565b6115cb5760008381526006602090815260408083206001600160a01b03861684529091529020805460ff191660011790556115833390565b6001600160a01b0316826001600160a01b0316847f2f8788117e7eff1d82e926ec794901d17c78024a50270940304540a733656f0d60405160405180910390a4506001610750565b506000610750565b60006115df83836111dd565b156115cb5760008381526006602090815260408083206001600160a01b0386168085529252808320805460ff1916905551339286917ff6391f5c32d9c69d2a47ea670b442974b53935d1edc7fd64eb21e047a839171b9190a4506001610750565b611648611b06565b6005805460ff191690557f5db9ee0a495bf2e6ff9c91a7834c1ba4fdd244a5e8aa4e537bd38aeae4b073aa335b6040516001600160a01b03909116815260200160405180910390a1565b6001600160a01b0382166116bc57604051634b637e8f60e11b815260006004820152602401610884565b61096d82600083611aba565b6001600160a01b0382166116f25760405163ec442f0560e01b815260006004820152602401610884565b61096d60008383611aba565b600580546001600160a01b03838116610100818102610100600160a81b031985161790945560405193909204169182907f8be0079c531659141344cd1fd0a4f28419497f9722a3daafe3b4186f6b6457e090600090a35050565b611760611b29565b6005805460ff191660011790557f62e78cea01bee320cd4e420270b5ea74000d11b0c9f74754ebdbfc544b05a2586116753390565b600080600754836117a69190611efe565b9050600080670de0b6b3a7640000600954846117c29190611f25565b6117cc9190611f6b565b905082600b60008282546117e09190611fea565b9091555050600b54678ac7230489e80000121561180457678ac7230489e80000600b555b678ac7230489e7ffff19600b54121561182557678ac7230489e7ffff19600b555b6000670de0b6b3a7640000600a54600b546118409190611f25565b61184a9190611f6b565b905060006118588284611fea565b9050600081131561190d57806000606461187160025490565b61187b9190611fc3565b905060008211801561188d5750600081115b156119065760008183116118a157826118a3565b815b306000908152602081905260409020549091508111611904576118c63082611692565b604080518b8152600060208201527f3e7a6f522c58183314240a03a907f09792f88be6f520f6b273e3e67865764e30910160405180910390a1600196505b505b50506119da565b60008112156119da57600061192182612012565b90506000606461193060025490565b600e5461193d9190611f99565b6119479190611fc3565b90506000821180156119595750600081115b156119d757600081831161196d578261196f565b815b9050600e548161197e60025490565b6119889190611fd7565b116119d55761199730826116c8565b604080518b8152600160208201527f3e7a6f522c58183314240a03a907f09792f88be6f520f6b273e3e67865764e30910160405180910390a1600196505b505b50505b509195945050505050565b6001600160a01b038416611a0f5760405163e602df0560e01b815260006004820152602401610884565b6001600160a01b038316611a3957604051634a1406b160e11b815260006004820152602401610884565b6001600160a01b03808516600090815260016020908152604080832093871683529290522082905580156109ae57826001600160a01b0316846001600160a01b03167f8c5be1e5ebec7d5bd14f71427d1e84f3dd0314c0f7b2291e5b200ac8c7c3b92584604051611aac91815260200190565b60405180910390a350505050565b611ac2611b29565b610ba5838383611b4d565b611ad782826111dd565b61096d5760405163e2517d3f60e01b81526001600160a01b038216600482015260248101839052604401610884565b60055460ff16610bba57604051638dfc202b60e01b815260040160405180910390fd5b60055460ff1615610bba5760405163d93c066560e01b815260040160405180910390fd5b611b55611b29565b610ba58383836001600160a01b038316611b86578060026000828254611b7b9190611fd7565b90915550611bf89050565b6001600160a01b03831660009081526020819052604090205481811015611bd95760405163391434e360e21b81526001600160a01b03851660048201526024810182905260448101839052606401610884565b6001600160a01b03841660009081526020819052604090209082900390555b6001600160a01b038216611c1457600280548290039055611c33565b6001600160a01b03821660009081526020819052604090208054820190555b816001600160a01b0316836001600160a01b03167fddf252ad1be2c89b69c2b068fc378daa952ba7f163c4a11628f55a4df523b3ef83604051611c7891815260200190565b60405180910390a3505050565b600060208284031215611c9757600080fd5b81356001600160e01b031981168114611caf57600080fd5b9392505050565b600060208083528351808285015260005b81811015611ce357858101830151858201604001528201611cc7565b506000604082860101526040601f19601f8301168501019250505092915050565b80356001600160a01b03811681146113dd57600080fd5b60008060408385031215611d2e57600080fd5b611d3783611d04565b946020939093013593505050565b803580151581146113dd57600080fd5b600060208284031215611d6757600080fd5b611caf82611d45565b600080600060608486031215611d8557600080fd5b611d8e84611d04565b9250611d9c60208501611d04565b9150604084013590509250925092565b600060208284031215611dbe57600080fd5b5035919050565b60008060408385031215611dd857600080fd5b611de183611d04565b9150611def60208401611d45565b90509250929050565b60008060408385031215611e0b57600080fd5b82359150611def60208401611d04565b600080600060608486031215611e3057600080fd5b505081359360208301359350604090920135919050565b600060208284031215611e5957600080fd5b611caf82611d04565b60008060408385031215611e7557600080fd5b50508035926020909101359150565b60008060408385031215611e9757600080fd5b611ea083611d04565b9150611def60208401611d04565b600181811c90821680611ec257607f821691505b602082108103611ee257634e487b7160e01b600052602260045260246000fd5b50919050565b634e487b7160e01b600052601160045260246000fd5b8181036000831280158383131683831282161715611f1e57611f1e611ee8565b5092915050565b80820260008212600160ff1b84141615611f4157611f41611ee8565b818105831482151761075057610750611ee8565b634e487b7160e01b600052601260045260246000fd5b600082611f7a57611f7a611f55565b600160ff1b821460001984141615611f9457611f94611ee8565b500590565b8181038181111561075057610750611ee8565b808202811582820484141761075057610750611ee8565b600082611fd257611fd2611f55565b500490565b8082018082111561075057610750611ee8565b808201828112600083128015821682158216171561200a5761200a611ee8565b505092915050565b6000600160ff1b820161202757612027611ee8565b506000039056fe3a64504f0bc0c335e2aecb78638a257e0351a3fe0370861fd54ee4190b92093368e79a7bf1e0bc45d0a330c573bc367f9cf464fd326078812f301165fbda4ef1a26469706673582212201ba73c0b2ba3ea857919a72e05a491e7fb0b711f4402259e81e72d6a6fc7004d64736f6c63430008140033","opcodes":"PUSH1 0x80 PUSH1 0x40 MSTORE PUSH8 0xDE0B6B3A7640000 PUSH1 0x7 DUP2 SWAP1 SSTORE PUSH7 0xB1A2BC2EC50000 PUSH1 0x8 SSTORE PUSH7 0x2386F26FC10000 PUSH1 0x9 SSTORE PUSH7 0x11C37937E08000 PUSH1 0xA SWAP1 DUP2 SSTORE PUSH1 0x0 PUSH1 0xB DUP2 SWAP1 SSTORE PUSH2 0x3E8 PUSH1 0xC DUP2 SWAP1 SSTORE PUSH1 0xD SSTORE PUSH12 0x33B2E3C9FD0803CE8000000 PUSH1 0xE SSTORE PUSH1 0xF SWAP3 SWAP1 SWAP3 SSTORE PUSH1 0x10 DUP3 SWAP1 SSTORE PUSH3 0x15180 PUSH1 0x11 SSTORE PUSH1 0x12 DUP3 SWAP1 SSTORE PUSH1 0x13 DUP3 SWAP1 SSTORE PUSH1 0x14 SWAP2 SWAP1 SWAP2 SSTORE PUSH1 0x15 SSTORE PUSH1 0x16 DUP1 SLOAD PUSH1 0xFF NOT AND SWAP1 SSTORE CALLVALUE DUP1 ISZERO PUSH3 0x93 JUMPI PUSH1 0x0 DUP1 REVERT JUMPDEST POP CALLER PUSH1 0x40 MLOAD DUP1 PUSH1 0x40 ADD PUSH1 0x40 MSTORE DUP1 PUSH1 0xD DUP2 MSTORE PUSH1 0x20 ADD PUSH13 0x29B7B630B9283AB735A1B7B4B7 PUSH1 0x99 SHL DUP2 MSTORE POP PUSH1 0x40 MLOAD DUP1 PUSH1 0x40 ADD PUSH1 0x40 MSTORE DUP1 PUSH1 0x3 DUP2 MSTORE PUSH1 0x20 ADD PUSH3 0x53504B PUSH1 0xE8 SHL DUP2 MSTORE POP DUP2 PUSH1 0x3 SWAP1 DUP2 PUSH3 0xE8 SWAP2 SWAP1 PUSH3 0x382 JUMP JUMPDEST POP PUSH1 0x4 PUSH3 0xF7 DUP3 DUP3 PUSH3 0x382 JUMP JUMPDEST POP POP POP PUSH1 0x1 PUSH1 0x1 PUSH1 0xA0 SHL SUB DUP2 AND PUSH3 0x129 JUMPI PUSH1 0x40 MLOAD PUSH4 0x1E4FBDF7 PUSH1 0xE0 SHL DUP2 MSTORE PUSH1 0x0 PUSH1 0x4 DUP3 ADD MSTORE PUSH1 0x24 ADD PUSH1 0x40 MLOAD DUP1 SWAP2 SUB SWAP1 REVERT JUMPDEST PUSH3 0x134 DUP2 PUSH3 0x1D0 JUMP JUMPDEST POP PUSH3 0x142 PUSH1 0x0 CALLER PUSH3 0x22A JUMP JUMPDEST POP PUSH3 0x16F PUSH32 0x9F2DF0FED2C77648DE5860A4CC508CD0818C85B8B8A1AB4CEEEF8D981C8956A6 CALLER PUSH3 0x22A JUMP JUMPDEST POP PUSH3 0x19C PUSH32 0x68E79A7BF1E0BC45D0A330C573BC367F9CF464FD326078812F301165FBDA4EF1 CALLER PUSH3 0x22A JUMP JUMPDEST POP PUSH3 0x1C9 PUSH32 0x65D7A28E3265B37A6474929F336521B332C1681B933F6CB9F3376673440D862A CALLER PUSH3 0x22A JUMP JUMPDEST POP PUSH3 0x44E JUMP JUMPDEST PUSH1 0x5 DUP1 SLOAD PUSH1 0x1 PUSH1 0x1 PUSH1 0xA0 SHL SUB DUP4 DUP2 AND PUSH2 0x100 DUP2 DUP2 MUL PUSH2 0x100 PUSH1 0x1 PUSH1 0xA8 SHL SUB NOT DUP6 AND OR SWAP1 SWAP5 SSTORE PUSH1 0x40 MLOAD SWAP4 SWAP1 SWAP3 DIV AND SWAP2 DUP3 SWAP1 PUSH32 0x8BE0079C531659141344CD1FD0A4F28419497F9722A3DAAFE3B4186F6B6457E0 SWAP1 PUSH1 0x0 SWAP1 LOG3 POP POP JUMP JUMPDEST PUSH1 0x0 DUP3 DUP2 MSTORE PUSH1 0x6 PUSH1 0x20 SWAP1 DUP2 MSTORE PUSH1 0x40 DUP1 DUP4 KECCAK256 PUSH1 0x1 PUSH1 0x1 PUSH1 0xA0 SHL SUB DUP6 AND DUP5 MSTORE SWAP1 SWAP2 MSTORE DUP2 KECCAK256 SLOAD PUSH1 0xFF AND PUSH3 0x2D3 JUMPI PUSH1 0x0 DUP4 DUP2 MSTORE PUSH1 0x6 PUSH1 0x20 SWAP1 DUP2 MSTORE PUSH1 0x40 DUP1 DUP4 KECCAK256 PUSH1 0x1 PUSH1 0x1 PUSH1 0xA0 SHL SUB DUP7 AND DUP5 MSTORE SWAP1 SWAP2 MSTORE SWAP1 KECCAK256 DUP1 SLOAD PUSH1 0xFF NOT AND PUSH1 0x1 OR SWAP1 SSTORE PUSH3 0x28A CALLER SWAP1 JUMP JUMPDEST PUSH1 0x1 PUSH1 0x1 PUSH1 0xA0 SHL SUB AND DUP3 PUSH1 0x1 PUSH1 0x1 PUSH1 0xA0 SHL SUB AND DUP5 PUSH32 0x2F8788117E7EFF1D82E926EC794901D17C78024A50270940304540A733656F0D PUSH1 0x40 MLOAD PUSH1 0x40 MLOAD DUP1 SWAP2 SUB SWAP1 LOG4 POP PUSH1 0x1 PUSH3 0x2D7 JUMP JUMPDEST POP PUSH1 0x0 JUMPDEST SWAP3 SWAP2 POP POP JUMP JUMPDEST PUSH4 0x4E487B71 PUSH1 0xE0 SHL PUSH1 0x0 MSTORE PUSH1 0x41 PUSH1 0x4 MSTORE PUSH1 0x24 PUSH1 0x0 REVERT JUMPDEST PUSH1 0x1 DUP2 DUP2 SHR SWAP1 DUP3 AND DUP1 PUSH3 0x308 JUMPI PUSH1 0x7F DUP3 AND SWAP2 POP JUMPDEST PUSH1 0x20 DUP3 LT DUP2 SUB PUSH3 0x329 JUMPI PUSH4 0x4E487B71 PUSH1 0xE0 SHL PUSH1 0x0 MSTORE PUSH1 0x22 PUSH1 0x4 MSTORE PUSH1 0x24 PUSH1 0x0 REVERT JUMPDEST POP SWAP2 SWAP1 POP JUMP JUMPDEST PUSH1 0x1F DUP3 GT ISZERO PUSH3 0x37D JUMPI PUSH1 0x0 DUP2 DUP2 MSTORE PUSH1 0x20 DUP2 KECCAK256 PUSH1 0x1F DUP6 ADD PUSH1 0x5 SHR DUP2 ADD PUSH1 0x20 DUP7 LT ISZERO PUSH3 0x358 JUMPI POP DUP1 JUMPDEST PUSH1 0x1F DUP6 ADD PUSH1 0x5 SHR DUP3 ADD SWAP2 POP JUMPDEST DUP2 DUP2 LT ISZERO PUSH3 0x379 JUMPI DUP3 DUP2 SSTORE PUSH1 0x1 ADD PUSH3 0x364 JUMP JUMPDEST POP POP POP JUMPDEST POP POP POP JUMP JUMPDEST DUP2 MLOAD PUSH1 0x1 PUSH1 0x1 PUSH1 0x40 SHL SUB DUP2 GT ISZERO PUSH3 0x39E JUMPI PUSH3 0x39E PUSH3 0x2DD JUMP JUMPDEST PUSH3 0x3B6 DUP2 PUSH3 0x3AF DUP5 SLOAD PUSH3 0x2F3 JUMP JUMPDEST DUP5 PUSH3 0x32F JUMP JUMPDEST PUSH1 0x20 DUP1 PUSH1 0x1F DUP4 GT PUSH1 0x1 DUP2 EQ PUSH3 0x3EE JUMPI PUSH1 0x0 DUP5 ISZERO PUSH3 0x3D5 JUMPI POP DUP6 DUP4 ADD MLOAD JUMPDEST PUSH1 0x0 NOT PUSH1 0x3 DUP7 SWAP1 SHL SHR NOT AND PUSH1 0x1 DUP6 SWAP1 SHL OR DUP6 SSTORE PUSH3 0x379 JUMP JUMPDEST PUSH1 0x0 DUP6 DUP2 MSTORE PUSH1 0x20 DUP2 KECCAK256 PUSH1 0x1F NOT DUP7 AND SWAP2 JUMPDEST DUP3 DUP2 LT ISZERO PUSH3 0x41F JUMPI DUP9 DUP7 ADD MLOAD DUP3 SSTORE SWAP5 DUP5 ADD SWAP5 PUSH1 0x1 SWAP1 SWAP2 ADD SWAP1 DUP5 ADD PUSH3 0x3FE JUMP JUMPDEST POP DUP6 DUP3 LT ISZERO PUSH3 0x43E JUMPI DUP8 DUP6 ADD MLOAD PUSH1 0x0 NOT PUSH1 0x3 DUP9 SWAP1 SHL PUSH1 0xF8 AND SHR NOT AND DUP2 SSTORE JUMPDEST POP POP POP POP POP PUSH1 0x1 SWAP1 DUP2 SHL ADD SWAP1 SSTORE POP JUMP JUMPDEST PUSH2 0x20A4 DUP1 PUSH3 0x45E PUSH1 0x0 CODECOPY PUSH1 0x0 RETURN INVALID PUSH1 0x80 PUSH1 0x40 MSTORE CALLVALUE DUP1 ISZERO PUSH2 0x10 JUMPI PUSH1 0x0 DUP1 REVERT JUMPDEST POP PUSH1 0x4 CALLDATASIZE LT PUSH2 0x35D JUMPI PUSH1 0x0 CALLDATALOAD PUSH1 0xE0 SHR DUP1 PUSH4 0x6DB79437 GT PUSH2 0x1D3 JUMPI DUP1 PUSH4 0x9648C229 GT PUSH2 0x104 JUMPI DUP1 PUSH4 0xD5391393 GT PUSH2 0xA2 JUMPI DUP1 PUSH4 0xE0E1141E GT PUSH2 0x7C JUMPI DUP1 PUSH4 0xE0E1141E EQ PUSH2 0x6C9 JUMPI DUP1 PUSH4 0xE63AB1E9 EQ PUSH2 0x6DC JUMPI DUP1 PUSH4 0xF2FDE38B EQ PUSH2 0x703 JUMPI DUP1 PUSH4 0xF35DAD40 EQ PUSH2 0x716 JUMPI PUSH1 0x0 DUP1 REVERT JUMPDEST DUP1 PUSH4 0xD5391393 EQ PUSH2 0x656 JUMPI DUP1 PUSH4 0xD547741F EQ PUSH2 0x67D JUMPI DUP1 PUSH4 0xDD62ED3E EQ PUSH2 0x690 JUMPI PUSH1 0x0 DUP1 REVERT JUMPDEST DUP1 PUSH4 0xA217FDDF GT PUSH2 0xDE JUMPI DUP1 PUSH4 0xA217FDDF EQ PUSH2 0x61F JUMPI DUP1 PUSH4 0xA9059CBB EQ PUSH2 0x627 JUMPI DUP1 PUSH4 0xB5FBC7A0 EQ PUSH2 0x63A JUMPI DUP1 PUSH4 0xB609D0E6 EQ PUSH2 0x64D JUMPI PUSH1 0x0 DUP1 REVERT JUMPDEST DUP1 PUSH4 0x9648C229 EQ PUSH2 0x605 JUMPI DUP1 PUSH4 0x9AD70CC2 EQ PUSH2 0x60D JUMPI DUP1 PUSH4 0x9CF5B4D6 EQ PUSH2 0x616 JUMPI PUSH1 0x0 DUP1 REVERT JUMPDEST DUP1 PUSH4 0x88174060 GT PUSH2 0x171 JUMPI DUP1 PUSH4 0x8F770AD0 GT PUSH2 0x14B JUMPI DUP1 PUSH4 0x8F770AD0 EQ PUSH2 0x5D8 JUMPI DUP1 PUSH4 0x9086169B EQ PUSH2 0x5E1 JUMPI DUP1 PUSH4 0x91D14854 EQ PUSH2 0x5EA JUMPI DUP1 PUSH4 0x95D89B41 EQ PUSH2 0x5FD JUMPI PUSH1 0x0 DUP1 REVERT JUMPDEST DUP1 PUSH4 0x88174060 EQ PUSH2 0x593 JUMPI DUP1 PUSH4 0x8CB545DD EQ PUSH2 0x5A6 JUMPI DUP1 PUSH4 0x8DA5CB5B EQ PUSH2 0x5AF JUMPI PUSH1 0x0 DUP1 REVERT JUMPDEST DUP1 PUSH4 0x79CC6790 GT PUSH2 0x1AD JUMPI DUP1 PUSH4 0x79CC6790 EQ PUSH2 0x566 JUMPI DUP1 PUSH4 0x8456CB59 EQ PUSH2 0x579 JUMPI DUP1 PUSH4 0x86952D00 EQ PUSH2 0x581 JUMPI DUP1 PUSH4 0x876DAF7E EQ PUSH2 0x58A JUMPI PUSH1 0x0 DUP1 REVERT JUMPDEST DUP1 PUSH4 0x6DB79437 EQ PUSH2 0x522 JUMPI DUP1 PUSH4 0x70A08231 EQ PUSH2 0x535 JUMPI DUP1 PUSH4 0x715018A6 EQ PUSH2 0x55E JUMPI PUSH1 0x0 DUP1 REVERT JUMPDEST DUP1 PUSH4 0x2F51CCE0 GT PUSH2 0x2AD JUMPI DUP1 PUSH4 0x458F5815 GT PUSH2 0x24B JUMPI DUP1 PUSH4 0x56B6D0D5 GT PUSH2 0x225 JUMPI DUP1 PUSH4 0x56B6D0D5 EQ PUSH2 0x4FD JUMPI DUP1 PUSH4 0x5A64AD95 EQ PUSH2 0x505 JUMPI DUP1 PUSH4 0x5C975ABB EQ PUSH2 0x50E JUMPI DUP1 PUSH4 0x6A5809CC EQ PUSH2 0x519 JUMPI PUSH1 0x0 DUP1 REVERT JUMPDEST DUP1 PUSH4 0x458F5815 EQ PUSH2 0x4CE JUMPI DUP1 PUSH4 0x4E0C21C3 EQ PUSH2 0x4D7 JUMPI DUP1 PUSH4 0x4E3B95FB EQ PUSH2 0x4EA JUMPI PUSH1 0x0 DUP1 REVERT JUMPDEST DUP1 PUSH4 0x349F7173 GT PUSH2 0x287 JUMPI DUP1 PUSH4 0x349F7173 EQ PUSH2 0x497 JUMPI DUP1 PUSH4 0x36568ABE EQ PUSH2 0x4A0 JUMPI DUP1 PUSH4 0x3F4BA83A EQ PUSH2 0x4B3 JUMPI DUP1 PUSH4 0x42966C68 EQ PUSH2 0x4BB JUMPI PUSH1 0x0 DUP1 REVERT JUMPDEST DUP1 PUSH4 0x2F51CCE0 EQ PUSH2 0x46C JUMPI DUP1 PUSH4 0x3011F223 EQ PUSH2 0x47F JUMPI DUP1 PUSH4 0x313CE567 EQ PUSH2 0x488 JUMPI PUSH1 0x0 DUP1 REVERT JUMPDEST DUP1 PUSH4 0x1BC9A450 GT PUSH2 0x31A JUMPI DUP1 PUSH4 0x23B872DD GT PUSH2 0x2F4 JUMPI DUP1 PUSH4 0x23B872DD EQ PUSH2 0x410 JUMPI DUP1 PUSH4 0x248A9CA3 EQ PUSH2 0x423 JUMPI DUP1 PUSH4 0x26CFB7A4 EQ PUSH2 0x446 JUMPI DUP1 PUSH4 0x2F2FF15D EQ PUSH2 0x459 JUMPI PUSH1 0x0 DUP1 REVERT JUMPDEST DUP1 PUSH4 0x1BC9A450 EQ PUSH2 0x3E5 JUMPI DUP1 PUSH4 0x1F45D0E4 EQ PUSH2 0x3F2 JUMPI DUP1 PUSH4 0x21E12B13 EQ PUSH2 0x3FB JUMPI PUSH1 0x0 DUP1 REVERT JUMPDEST DUP1 PUSH4 0x1FFC9A7 EQ PUSH2 0x362 JUMPI DUP1 PUSH4 0x6FDDE03 EQ PUSH2 0x38A JUMPI DUP1 PUSH4 0x7E2CEA5 EQ PUSH2 0x39F JUMPI DUP1 PUSH4 0x95EA7B3 EQ PUSH2 0x3C2 JUMPI DUP1 PUSH4 0x113CD6E8 EQ PUSH2 0x3D5 JUMPI DUP1 PUSH4 0x18160DDD EQ PUSH2 0x3DD JUMPI JUMPDEST PUSH1 0x0 DUP1 REVERT JUMPDEST PUSH2 0x375 PUSH2 0x370 CALLDATASIZE PUSH1 0x4 PUSH2 0x1C85 JUMP JUMPDEST PUSH2 0x71F JUMP JUMPDEST PUSH1 0x40 MLOAD SWAP1 ISZERO ISZERO DUP2 MSTORE PUSH1 0x20 ADD JUMPDEST PUSH1 0x40 MLOAD DUP1 SWAP2 SUB SWAP1 RETURN JUMPDEST PUSH2 0x392 PUSH2 0x756 JUMP JUMPDEST PUSH1 0x40 MLOAD PUSH2 0x381 SWAP2 SWAP1 PUSH2 0x1CB6 JUMP JUMPDEST PUSH2 0x3B4 PUSH1 0x0 DUP1 MLOAD PUSH1 0x20 PUSH2 0x204F DUP4 CODECOPY DUP2 MLOAD SWAP2 MSTORE DUP2 JUMP JUMPDEST PUSH1 0x40 MLOAD SWAP1 DUP2 MSTORE PUSH1 0x20 ADD PUSH2 0x381 JUMP JUMPDEST PUSH2 0x375 PUSH2 0x3D0 CALLDATASIZE PUSH1 0x4 PUSH2 0x1D1B JUMP JUMPDEST PUSH2 0x7E8 JUMP JUMPDEST PUSH2 0x3B4 PUSH2 0x800 JUMP JUMPDEST PUSH1 0x2 SLOAD PUSH2 0x3B4 JUMP JUMPDEST PUSH1 0x16 SLOAD PUSH2 0x375 SWAP1 PUSH1 0xFF AND DUP2 JUMP JUMPDEST PUSH2 0x3B4 PUSH1 0x11 SLOAD DUP2 JUMP JUMPDEST PUSH2 0x40E PUSH2 0x409 CALLDATASIZE PUSH1 0x4 PUSH2 0x1D55 JUMP JUMPDEST PUSH2 0x82C JUMP JUMPDEST STOP JUMPDEST PUSH2 0x375 PUSH2 0x41E CALLDATASIZE PUSH1 0x4 PUSH2 0x1D70 JUMP JUMPDEST PUSH2 0x8D4 JUMP JUMPDEST PUSH2 0x3B4 PUSH2 0x431 CALLDATASIZE PUSH1 0x4 PUSH2 0x1DAC JUMP JUMPDEST PUSH1 0x0 SWAP1 DUP2 MSTORE PUSH1 0x6 PUSH1 0x20 MSTORE PUSH1 0x40 SWAP1 KECCAK256 PUSH1 0x1 ADD SLOAD SWAP1 JUMP JUMPDEST PUSH2 0x40E PUSH2 0x454 CALLDATASIZE PUSH1 0x4 PUSH2 0x1DC5 JUMP JUMPDEST PUSH2 0x8F8 JUMP JUMPDEST PUSH2 0x40E PUSH2 0x467 CALLDATASIZE PUSH1 0x4 PUSH2 0x1DF8 JUMP JUMPDEST PUSH2 0x989 JUMP JUMPDEST PUSH2 0x40E PUSH2 0x47A CALLDATASIZE PUSH1 0x4 PUSH2 0x1E1B JUMP JUMPDEST PUSH2 0x9B4 JUMP JUMPDEST PUSH2 0x3B4 PUSH1 0x9 SLOAD DUP2 JUMP JUMPDEST PUSH1 0x40 MLOAD PUSH1 0x12 DUP2 MSTORE PUSH1 0x20 ADD PUSH2 0x381 JUMP JUMPDEST PUSH2 0x3B4 PUSH1 0xF SLOAD DUP2 JUMP JUMPDEST PUSH2 0x40E PUSH2 0x4AE CALLDATASIZE PUSH1 0x4 PUSH2 0x1DF8 JUMP JUMPDEST PUSH2 0xB72 JUMP JUMPDEST PUSH2 0x40E PUSH2 0xBAA JUMP JUMPDEST PUSH2 0x40E PUSH2 0x4C9 CALLDATASIZE PUSH1 0x4 PUSH2 0x1DAC JUMP JUMPDEST PUSH2 0xBBC JUMP JUMPDEST PUSH2 0x3B4 PUSH1 0xD SLOAD DUP2 JUMP JUMPDEST PUSH2 0x40E PUSH2 0x4E5 CALLDATASIZE PUSH1 0x4 PUSH2 0x1E47 JUMP JUMPDEST PUSH2 0xBC9 JUMP JUMPDEST PUSH2 0x3B4 PUSH2 0x4F8 CALLDATASIZE PUSH1 0x4 PUSH2 0x1DF8 JUMP JUMPDEST PUSH2 0xBD1 JUMP JUMPDEST PUSH2 0x3B4 PUSH2 0xEE6 JUMP JUMPDEST PUSH2 0x3B4 PUSH1 0xC SLOAD DUP2 JUMP JUMPDEST PUSH1 0x5 SLOAD PUSH1 0xFF AND PUSH2 0x375 JUMP JUMPDEST PUSH2 0x3B4 PUSH1 0x12 SLOAD DUP2 JUMP JUMPDEST PUSH2 0x40E PUSH2 0x530 CALLDATASIZE PUSH1 0x4 PUSH2 0x1E62 JUMP JUMPDEST PUSH2 0xF1E JUMP JUMPDEST PUSH2 0x3B4 PUSH2 0x543 CALLDATASIZE PUSH1 0x4 PUSH2 0x1E47 JUMP JUMPDEST PUSH1 0x1 PUSH1 0x1 PUSH1 0xA0 SHL SUB AND PUSH1 0x0 SWAP1 DUP2 MSTORE PUSH1 0x20 DUP2 SWAP1 MSTORE PUSH1 0x40 SWAP1 KECCAK256 SLOAD SWAP1 JUMP JUMPDEST PUSH2 0x40E PUSH2 0x1047 JUMP JUMPDEST PUSH2 0x40E PUSH2 0x574 CALLDATASIZE PUSH1 0x4 PUSH2 0x1D1B JUMP JUMPDEST PUSH2 0x1059 JUMP JUMPDEST PUSH2 0x40E PUSH2 0x106E JUMP JUMPDEST PUSH2 0x3B4 PUSH1 0x15 SLOAD DUP2 JUMP JUMPDEST PUSH2 0x3B4 PUSH1 0x7 SLOAD DUP2 JUMP JUMPDEST PUSH2 0x375 PUSH2 0x5A1 CALLDATASIZE PUSH1 0x4 PUSH2 0x1DAC JUMP JUMPDEST PUSH2 0x10A0 JUMP JUMPDEST PUSH2 0x3B4 PUSH1 0x13 SLOAD DUP2 JUMP JUMPDEST PUSH1 0x5 SLOAD PUSH2 0x100 SWAP1 DIV PUSH1 0x1 PUSH1 0x1 PUSH1 0xA0 SHL SUB AND PUSH1 0x40 MLOAD PUSH1 0x1 PUSH1 0x1 PUSH1 0xA0 SHL SUB SWAP1 SWAP2 AND DUP2 MSTORE PUSH1 0x20 ADD PUSH2 0x381 JUMP JUMPDEST PUSH2 0x3B4 PUSH1 0xE SLOAD DUP2 JUMP JUMPDEST PUSH2 0x3B4 PUSH1 0xB SLOAD DUP2 JUMP JUMPDEST PUSH2 0x375 PUSH2 0x5F8 CALLDATASIZE PUSH1 0x4 PUSH2 0x1DF8 JUMP JUMPDEST PUSH2 0x11DD JUMP JUMPDEST PUSH2 0x392 PUSH2 0x1208 JUMP JUMPDEST PUSH2 0x375 PUSH2 0x1217 JUMP JUMPDEST PUSH2 0x3B4 PUSH1 0x8 SLOAD DUP2 JUMP JUMPDEST PUSH2 0x3B4 PUSH1 0xA SLOAD DUP2 JUMP JUMPDEST PUSH2 0x3B4 PUSH1 0x0 DUP2 JUMP JUMPDEST PUSH2 0x375 PUSH2 0x635 CALLDATASIZE PUSH1 0x4 PUSH2 0x1D1B JUMP JUMPDEST PUSH2 0x126D JUMP JUMPDEST PUSH2 0x3B4 PUSH2 0x648 CALLDATASIZE PUSH1 0x4 PUSH2 0x1DAC JUMP JUMPDEST PUSH2 0x127B JUMP JUMPDEST PUSH2 0x3B4 PUSH1 0x10 SLOAD DUP2 JUMP JUMPDEST PUSH2 0x3B4 PUSH32 0x9F2DF0FED2C77648DE5860A4CC508CD0818C85B8B8A1AB4CEEEF8D981C8956A6 DUP2 JUMP JUMPDEST PUSH2 0x40E PUSH2 0x68B CALLDATASIZE PUSH1 0x4 PUSH2 0x1DF8 JUMP JUMPDEST PUSH2 0x12C3 JUMP JUMPDEST PUSH2 0x3B4 PUSH2 0x69E CALLDATASIZE PUSH1 0x4 PUSH2 0x1E84 JUMP JUMPDEST PUSH1 0x1 PUSH1 0x1 PUSH1 0xA0 SHL SUB SWAP2 DUP3 AND PUSH1 0x0 SWAP1 DUP2 MSTORE PUSH1 0x1 PUSH1 0x20 SWAP1 DUP2 MSTORE PUSH1 0x40 DUP1 DUP4 KECCAK256 SWAP4 SWAP1 SWAP5 AND DUP3 MSTORE SWAP2 SWAP1 SWAP2 MSTORE KECCAK256 SLOAD SWAP1 JUMP JUMPDEST PUSH2 0x375 PUSH2 0x6D7 CALLDATASIZE PUSH1 0x4 PUSH2 0x1DAC JUMP JUMPDEST PUSH2 0x12E8 JUMP JUMPDEST PUSH2 0x3B4 PUSH32 0x65D7A28E3265B37A6474929F336521B332C1681B933F6CB9F3376673440D862A DUP2 JUMP JUMPDEST PUSH2 0x40E PUSH2 0x711 CALLDATASIZE PUSH1 0x4 PUSH2 0x1E47 JUMP JUMPDEST PUSH2 0x13E2 JUMP JUMPDEST PUSH2 0x3B4 PUSH1 0x14 SLOAD DUP2 JUMP JUMPDEST PUSH1 0x0 PUSH1 0x1 PUSH1 0x1 PUSH1 0xE0 SHL SUB NOT DUP3 AND PUSH4 0x7965DB0B PUSH1 0xE0 SHL EQ DUP1 PUSH2 0x750 JUMPI POP PUSH4 0x1FFC9A7 PUSH1 0xE0 SHL PUSH1 0x1 PUSH1 0x1 PUSH1 0xE0 SHL SUB NOT DUP4 AND EQ JUMPDEST SWAP3 SWAP2 POP POP JUMP JUMPDEST PUSH1 0x60 PUSH1 0x3 DUP1 SLOAD PUSH2 0x765 SWAP1 PUSH2 0x1EAE JUMP JUMPDEST DUP1 PUSH1 0x1F ADD PUSH1 0x20 DUP1 SWAP2 DIV MUL PUSH1 0x20 ADD PUSH1 0x40 MLOAD SWAP1 DUP2 ADD PUSH1 0x40 MSTORE DUP1 SWAP3 SWAP2 SWAP1 DUP2 DUP2 MSTORE PUSH1 0x20 ADD DUP3 DUP1 SLOAD PUSH2 0x791 SWAP1 PUSH2 0x1EAE JUMP JUMPDEST DUP1 ISZERO PUSH2 0x7DE JUMPI DUP1 PUSH1 0x1F LT PUSH2 0x7B3 JUMPI PUSH2 0x100 DUP1 DUP4 SLOAD DIV MUL DUP4 MSTORE SWAP2 PUSH1 0x20 ADD SWAP2 PUSH2 0x7DE JUMP JUMPDEST DUP3 ADD SWAP2 SWAP1 PUSH1 0x0 MSTORE PUSH1 0x20 PUSH1 0x0 KECCAK256 SWAP1 JUMPDEST DUP2 SLOAD DUP2 MSTORE SWAP1 PUSH1 0x1 ADD SWAP1 PUSH1 0x20 ADD DUP1 DUP4 GT PUSH2 0x7C1 JUMPI DUP3 SWAP1 SUB PUSH1 0x1F AND DUP3 ADD SWAP2 JUMPDEST POP POP POP POP POP SWAP1 POP SWAP1 JUMP JUMPDEST PUSH1 0x0 CALLER PUSH2 0x7F6 DUP2 DUP6 DUP6 PUSH2 0x141D JUMP JUMPDEST POP PUSH1 0x1 SWAP4 SWAP3 POP POP POP JUMP JUMPDEST PUSH1 0x0 DUP1 PUSH1 0x7 SLOAD PUSH1 0x7 SLOAD PUSH1 0xF SLOAD PUSH2 0x816 SWAP2 SWAP1 PUSH2 0x1EFE JUMP JUMPDEST PUSH2 0x822 SWAP1 PUSH2 0x2710 PUSH2 0x1F25 JUMP JUMPDEST PUSH2 0x750 SWAP2 SWAP1 PUSH2 0x1F6B JUMP JUMPDEST PUSH2 0x844 PUSH1 0x0 DUP1 MLOAD PUSH1 0x20 PUSH2 0x204F DUP4 CODECOPY DUP2 MLOAD SWAP2 MSTORE CALLER PUSH2 0x11DD JUMP JUMPDEST PUSH2 0x88D JUMPI PUSH1 0x40 MLOAD PUSH3 0x461BCD PUSH1 0xE5 SHL DUP2 MSTORE PUSH1 0x20 PUSH1 0x4 DUP3 ADD MSTORE PUSH1 0x15 PUSH1 0x24 DUP3 ADD MSTORE PUSH21 0x4D7573742068617665204F5241434C455F524F4C45 PUSH1 0x58 SHL PUSH1 0x44 DUP3 ADD MSTORE PUSH1 0x64 ADD JUMPDEST PUSH1 0x40 MLOAD DUP1 SWAP2 SUB SWAP1 REVERT JUMPDEST PUSH1 0x16 DUP1 SLOAD PUSH1 0xFF NOT AND DUP3 ISZERO ISZERO SWAP1 DUP2 OR SWAP1 SWAP2 SSTORE PUSH1 0x40 MLOAD SWAP1 DUP2 MSTORE PUSH32 0xD5C34458E61328523166933DAC07E7942970FB6D4EE8769782A49E4E3C10CB3E SWAP1 PUSH1 0x20 ADD PUSH1 0x40 MLOAD DUP1 SWAP2 SUB SWAP1 LOG1 POP JUMP JUMPDEST PUSH1 0x0 CALLER PUSH2 0x8E2 DUP6 DUP3 DUP6 PUSH2 0x142A JUMP JUMPDEST PUSH2 0x8ED DUP6 DUP6 DUP6 PUSH2 0x14A3 JUMP JUMPDEST POP PUSH1 0x1 SWAP5 SWAP4 POP POP POP POP JUMP JUMPDEST PUSH2 0x900 PUSH2 0x1502 JUMP JUMPDEST PUSH1 0x1 PUSH1 0x1 PUSH1 0xA0 SHL SUB DUP3 AND PUSH2 0x94F JUMPI PUSH1 0x40 MLOAD PUSH3 0x461BCD PUSH1 0xE5 SHL DUP2 MSTORE PUSH1 0x20 PUSH1 0x4 DUP3 ADD MSTORE PUSH1 0x16 PUSH1 0x24 DUP3 ADD MSTORE PUSH22 0x496E76616C6964206F7261636C652061646472657373 PUSH1 0x50 SHL PUSH1 0x44 DUP3 ADD MSTORE PUSH1 0x64 ADD PUSH2 0x884 JUMP JUMPDEST DUP1 ISZERO PUSH2 0x971 JUMPI PUSH2 0x96D PUSH1 0x0 DUP1 MLOAD PUSH1 0x20 PUSH2 0x204F DUP4 CODECOPY DUP2 MLOAD SWAP2 MSTORE DUP4 PUSH2 0x989 JUMP JUMPDEST POP POP JUMP JUMPDEST PUSH2 0x96D PUSH1 0x0 DUP1 MLOAD PUSH1 0x20 PUSH2 0x204F DUP4 CODECOPY DUP2 MLOAD SWAP2 MSTORE DUP4 PUSH2 0x12C3 JUMP JUMPDEST PUSH1 0x0 DUP3 DUP2 MSTORE PUSH1 0x6 PUSH1 0x20 MSTORE PUSH1 0x40 SWAP1 KECCAK256 PUSH1 0x1 ADD SLOAD PUSH2 0x9A4 DUP2 PUSH2 0x1535 JUMP JUMPDEST PUSH2 0x9AE DUP4 DUP4 PUSH2 0x153F JUMP JUMPDEST POP POP POP POP JUMP JUMPDEST PUSH2 0x9BC PUSH2 0x1502 JUMP JUMPDEST PUSH1 0x0 DUP4 GT DUP1 ISZERO PUSH2 0x9D4 JUMPI POP PUSH8 0x16345785D8A0000 DUP4 GT ISZERO JUMPDEST PUSH2 0xA0F JUMPI PUSH1 0x40 MLOAD PUSH3 0x461BCD PUSH1 0xE5 SHL DUP2 MSTORE PUSH1 0x20 PUSH1 0x4 DUP3 ADD MSTORE PUSH1 0xC PUSH1 0x24 DUP3 ADD MSTORE PUSH12 0x125B9D985B1A590818985B99 PUSH1 0xA2 SHL PUSH1 0x44 DUP3 ADD MSTORE PUSH1 0x64 ADD PUSH2 0x884 JUMP JUMPDEST PUSH1 0x0 DUP3 GT PUSH2 0xA53 JUMPI PUSH1 0x40 MLOAD PUSH3 0x461BCD PUSH1 0xE5 SHL DUP2 MSTORE PUSH1 0x20 PUSH1 0x4 DUP3 ADD MSTORE PUSH1 0x11 PUSH1 0x24 DUP3 ADD MSTORE PUSH17 0x24B73B30B634B210383937B81033B0B4B7 PUSH1 0x79 SHL PUSH1 0x44 DUP3 ADD MSTORE PUSH1 0x64 ADD PUSH2 0x884 JUMP JUMPDEST PUSH1 0x0 DUP2 GT PUSH2 0xA96 JUMPI PUSH1 0x40 MLOAD PUSH3 0x461BCD PUSH1 0xE5 SHL DUP2 MSTORE PUSH1 0x20 PUSH1 0x4 DUP3 ADD MSTORE PUSH1 0x10 PUSH1 0x24 DUP3 ADD MSTORE PUSH16 0x24B73B30B634B21034B73A1033B0B4B7 PUSH1 0x81 SHL PUSH1 0x44 DUP3 ADD MSTORE PUSH1 0x64 ADD PUSH2 0x884 JUMP JUMPDEST PUSH1 0x8 DUP4 SWAP1 SSTORE PUSH1 0x9 DUP3 SWAP1 SSTORE PUSH1 0xA DUP2 SWAP1 SSTORE PUSH1 0x40 DUP1 MLOAD DUP2 DUP2 MSTORE PUSH1 0x7 DUP2 DUP4 ADD MSTORE PUSH7 0x1C1959D0985B99 PUSH1 0xCA SHL PUSH1 0x60 DUP3 ADD MSTORE PUSH1 0x20 DUP2 ADD DUP6 SWAP1 MSTORE SWAP1 MLOAD PUSH1 0x0 DUP1 MLOAD PUSH1 0x20 PUSH2 0x202F DUP4 CODECOPY DUP2 MLOAD SWAP2 MSTORE SWAP2 DUP2 SWAP1 SUB PUSH1 0x80 ADD SWAP1 LOG1 PUSH1 0x40 DUP1 MLOAD DUP2 DUP2 MSTORE PUSH1 0x10 DUP2 DUP4 ADD MSTORE PUSH16 0x383937B837B93A34B7B730B623B0B4B7 PUSH1 0x81 SHL PUSH1 0x60 DUP3 ADD MSTORE PUSH1 0x20 DUP2 ADD DUP5 SWAP1 MSTORE SWAP1 MLOAD PUSH1 0x0 DUP1 MLOAD PUSH1 0x20 PUSH2 0x202F DUP4 CODECOPY DUP2 MLOAD SWAP2 MSTORE SWAP2 DUP2 SWAP1 SUB PUSH1 0x80 ADD SWAP1 LOG1 PUSH1 0x40 DUP1 MLOAD DUP2 DUP2 MSTORE PUSH1 0xC DUP2 DUP4 ADD MSTORE PUSH12 0x34B73A32B3B930B623B0B4B7 PUSH1 0xA1 SHL PUSH1 0x60 DUP3 ADD MSTORE PUSH1 0x20 DUP2 ADD DUP4 SWAP1 MSTORE SWAP1 MLOAD PUSH1 0x0 DUP1 MLOAD PUSH1 0x20 PUSH2 0x202F DUP4 CODECOPY DUP2 MLOAD SWAP2 MSTORE SWAP2 DUP2 SWAP1 SUB PUSH1 0x80 ADD SWAP1 LOG1 POP POP POP JUMP JUMPDEST PUSH1 0x1 PUSH1 0x1 PUSH1 0xA0 SHL SUB DUP2 AND CALLER EQ PUSH2 0xB9B JUMPI PUSH1 0x40 MLOAD PUSH4 0x334BD919 PUSH1 0xE1 SHL DUP2 MSTORE PUSH1 0x4 ADD PUSH1 0x40 MLOAD DUP1 SWAP2 SUB SWAP1 REVERT JUMPDEST PUSH2 0xBA5 DUP3 DUP3 PUSH2 0x15D3 JUMP JUMPDEST POP POP POP JUMP JUMPDEST PUSH2 0xBB2 PUSH2 0x1502 JUMP JUMPDEST PUSH2 0xBBA PUSH2 0x1640 JUMP JUMPDEST JUMP JUMPDEST PUSH2 0xBC6 CALLER DUP3 PUSH2 0x1692 JUMP JUMPDEST POP JUMP JUMPDEST PUSH2 0xBC6 PUSH2 0x1502 JUMP JUMPDEST PUSH1 0x0 PUSH2 0xBFD PUSH32 0x9F2DF0FED2C77648DE5860A4CC508CD0818C85B8B8A1AB4CEEEF8D981C8956A6 CALLER PUSH2 0x11DD JUMP JUMPDEST PUSH2 0xC41 JUMPI PUSH1 0x40 MLOAD PUSH3 0x461BCD PUSH1 0xE5 SHL DUP2 MSTORE PUSH1 0x20 PUSH1 0x4 DUP3 ADD MSTORE PUSH1 0x15 PUSH1 0x24 DUP3 ADD MSTORE PUSH21 0x4D7573742068617665204D494E5445525F524F4C45 PUSH1 0x58 SHL PUSH1 0x44 DUP3 ADD MSTORE PUSH1 0x64 ADD PUSH2 0x884 JUMP JUMPDEST PUSH1 0x16 SLOAD PUSH1 0xFF AND ISZERO PUSH2 0xC94 JUMPI PUSH1 0x40 MLOAD PUSH3 0x461BCD PUSH1 0xE5 SHL DUP2 MSTORE PUSH1 0x20 PUSH1 0x4 DUP3 ADD MSTORE PUSH1 0x1D PUSH1 0x24 DUP3 ADD MSTORE PUSH32 0x477269642073747265737365643A206D696E74696E6720706175736564000000 PUSH1 0x44 DUP3 ADD MSTORE PUSH1 0x64 ADD PUSH2 0x884 JUMP JUMPDEST PUSH1 0x11 SLOAD PUSH1 0x10 SLOAD PUSH2 0xCA4 SWAP1 TIMESTAMP PUSH2 0x1F99 JUMP JUMPDEST LT PUSH2 0xCE6 JUMPI PUSH1 0x40 MLOAD PUSH3 0x461BCD PUSH1 0xE5 SHL DUP2 MSTORE PUSH1 0x20 PUSH1 0x4 DUP3 ADD MSTORE PUSH1 0x12 PUSH1 0x24 DUP3 ADD MSTORE PUSH18 0x4F7261636C65207072696365207374616C65 PUSH1 0x70 SHL PUSH1 0x44 DUP3 ADD MSTORE PUSH1 0x64 ADD PUSH2 0x884 JUMP JUMPDEST PUSH1 0x0 DUP4 GT PUSH2 0xD2C JUMPI PUSH1 0x40 MLOAD PUSH3 0x461BCD PUSH1 0xE5 SHL DUP2 MSTORE PUSH1 0x20 PUSH1 0x4 DUP3 ADD MSTORE PUSH1 0x13 PUSH1 0x24 DUP3 ADD MSTORE PUSH19 0x537572706C7573206D757374206265203E203 PUSH1 0x6C SHL PUSH1 0x44 DUP3 ADD MSTORE PUSH1 0x64 ADD PUSH2 0x884 JUMP JUMPDEST PUSH1 0x1 PUSH1 0x1 PUSH1 0xA0 SHL SUB DUP3 AND PUSH2 0xD76 JUMPI PUSH1 0x40 MLOAD PUSH3 0x461BCD PUSH1 0xE5 SHL DUP2 MSTORE PUSH1 0x20 PUSH1 0x4 DUP3 ADD MSTORE PUSH1 0x11 PUSH1 0x24 DUP3 ADD MSTORE PUSH17 0x125B9D985B1A59081C9958DA5C1A595B9D PUSH1 0x7A SHL PUSH1 0x44 DUP3 ADD MSTORE PUSH1 0x64 ADD PUSH2 0x884 JUMP JUMPDEST PUSH1 0x0 PUSH2 0xD8A DUP5 PUSH8 0xDE0B6B3A7640000 PUSH2 0x1FAC JUMP JUMPDEST SWAP1 POP PUSH1 0x0 PUSH2 0x2710 PUSH1 0xC SLOAD DUP4 PUSH2 0xD9F SWAP2 SWAP1 PUSH2 0x1FAC JUMP JUMPDEST PUSH2 0xDA9 SWAP2 SWAP1 PUSH2 0x1FC3 JUMP JUMPDEST SWAP1 POP PUSH1 0x0 PUSH2 0xDB7 DUP3 DUP5 PUSH2 0x1F99 JUMP JUMPDEST SWAP1 POP PUSH1 0xE SLOAD DUP2 PUSH2 0xDC6 PUSH1 0x2 SLOAD SWAP1 JUMP JUMPDEST PUSH2 0xDD0 SWAP2 SWAP1 PUSH2 0x1FD7 JUMP JUMPDEST GT ISZERO PUSH2 0xE14 JUMPI PUSH1 0x40 MLOAD PUSH3 0x461BCD PUSH1 0xE5 SHL DUP2 MSTORE PUSH1 0x20 PUSH1 0x4 DUP3 ADD MSTORE PUSH1 0x13 PUSH1 0x24 DUP3 ADD MSTORE PUSH19 0x14DD5C1C1B1E4818D85C08195E18D959591959 PUSH1 0x6A SHL PUSH1 0x44 DUP3 ADD MSTORE PUSH1 0x64 ADD PUSH2 0x884 JUMP JUMPDEST DUP6 PUSH1 0x13 PUSH1 0x0 DUP3 DUP3 SLOAD PUSH2 0xE26 SWAP2 SWAP1 PUSH2 0x1FD7 JUMP JUMPDEST SWAP1 SWAP2 SSTORE POP PUSH2 0xE36 SWAP1 POP DUP6 DUP3 PUSH2 0x16C8 JUMP JUMPDEST DUP2 ISZERO PUSH2 0xE57 JUMPI PUSH1 0x5 SLOAD PUSH2 0xE57 SWAP1 PUSH2 0x100 SWAP1 DIV PUSH1 0x1 PUSH1 0x1 PUSH1 0xA0 SHL SUB AND DUP4 PUSH2 0x16C8 JUMP JUMPDEST DUP6 PUSH32 0xAC0D72B60CF325C568DDAFA82B9A366E9493708024B6FF2045439AD1C04738DE TIMESTAMP PUSH1 0x40 MLOAD PUSH2 0xE89 SWAP2 DUP2 MSTORE PUSH1 0x20 ADD SWAP1 JUMP JUMPDEST PUSH1 0x40 MLOAD DUP1 SWAP2 SUB SWAP1 LOG2 PUSH1 0x40 DUP1 MLOAD DUP3 DUP2 MSTORE PUSH1 0x20 DUP2 ADD DUP9 SWAP1 MSTORE SWAP1 DUP2 ADD DUP4 SWAP1 MSTORE PUSH1 0x1 PUSH1 0x1 PUSH1 0xA0 SHL SUB DUP7 AND SWAP1 PUSH32 0xDA23212527D23FF11F61139471178901783EC61000DEE1BAE55888081E15F657 SWAP1 PUSH1 0x60 ADD PUSH1 0x40 MLOAD DUP1 SWAP2 SUB SWAP1 LOG2 SWAP6 SWAP5 POP POP POP POP POP JUMP JUMPDEST PUSH1 0x0 PUSH2 0xEF1 PUSH1 0x2 SLOAD SWAP1 JUMP JUMPDEST PUSH1 0x0 SUB PUSH2 0xEFE JUMPI POP PUSH1 0x64 SWAP1 JUMP JUMPDEST PUSH1 0x2 SLOAD PUSH1 0x12 SLOAD PUSH2 0xF0F SWAP1 PUSH1 0x64 PUSH2 0x1FAC JUMP JUMPDEST PUSH2 0xF19 SWAP2 SWAP1 PUSH2 0x1FC3 JUMP JUMPDEST SWAP1 POP SWAP1 JUMP JUMPDEST PUSH2 0xF26 PUSH2 0x1502 JUMP JUMPDEST PUSH2 0x1388 DUP3 GT ISZERO PUSH2 0xF6C JUMPI PUSH1 0x40 MLOAD PUSH3 0x461BCD PUSH1 0xE5 SHL DUP2 MSTORE PUSH1 0x20 PUSH1 0x4 DUP3 ADD MSTORE PUSH1 0x11 PUSH1 0x24 DUP3 ADD MSTORE PUSH17 0x9AD2DCE840CCCACA40E8DEDE40D0D2CED PUSH1 0x7B SHL PUSH1 0x44 DUP3 ADD MSTORE PUSH1 0x64 ADD PUSH2 0x884 JUMP JUMPDEST PUSH2 0x1388 DUP2 GT ISZERO PUSH2 0xFB4 JUMPI PUSH1 0x40 MLOAD PUSH3 0x461BCD PUSH1 0xE5 SHL DUP2 MSTORE PUSH1 0x20 PUSH1 0x4 DUP3 ADD MSTORE PUSH1 0x13 PUSH1 0x24 DUP3 ADD MSTORE PUSH19 0xA4CAC8CACADA40CCCACA40E8DEDE40D0D2CED PUSH1 0x6B SHL PUSH1 0x44 DUP3 ADD MSTORE PUSH1 0x64 ADD PUSH2 0x884 JUMP JUMPDEST PUSH1 0xC DUP3 SWAP1 SSTORE PUSH1 0xD DUP2 SWAP1 SSTORE PUSH1 0x40 DUP1 MLOAD DUP2 DUP2 MSTORE PUSH1 0xA DUP2 DUP4 ADD MSTORE PUSH10 0x6D696E74696E67466565 PUSH1 0xB0 SHL PUSH1 0x60 DUP3 ADD MSTORE PUSH1 0x20 DUP2 ADD DUP5 SWAP1 MSTORE SWAP1 MLOAD PUSH1 0x0 DUP1 MLOAD PUSH1 0x20 PUSH2 0x202F DUP4 CODECOPY DUP2 MLOAD SWAP2 MSTORE SWAP2 DUP2 SWAP1 SUB PUSH1 0x80 ADD SWAP1 LOG1 PUSH1 0x40 DUP1 MLOAD DUP2 DUP2 MSTORE PUSH1 0xD DUP2 DUP4 ADD MSTORE PUSH13 0x726564656D7074696F6E466565 PUSH1 0x98 SHL PUSH1 0x60 DUP3 ADD MSTORE PUSH1 0x20 DUP2 ADD DUP4 SWAP1 MSTORE SWAP1 MLOAD PUSH1 0x0 DUP1 MLOAD PUSH1 0x20 PUSH2 0x202F DUP4 CODECOPY DUP2 MLOAD SWAP2 MSTORE SWAP2 DUP2 SWAP1 SUB PUSH1 0x80 ADD SWAP1 LOG1 POP POP JUMP JUMPDEST PUSH2 0x104F PUSH2 0x1502 JUMP JUMPDEST PUSH2 0xBBA PUSH1 0x0 PUSH2 0x16FE JUMP JUMPDEST PUSH2 0x1064 DUP3 CALLER DUP4 PUSH2 0x142A JUMP JUMPDEST PUSH2 0x96D DUP3 DUP3 PUSH2 0x1692 JUMP JUMPDEST PUSH32 0x65D7A28E3265B37A6474929F336521B332C1681B933F6CB9F3376673440D862A PUSH2 0x1098 DUP2 PUSH2 0x1535 JUMP JUMPDEST PUSH2 0xBC6 PUSH2 0x1758 JUMP JUMPDEST PUSH1 0x0 DUP1 DUP3 GT PUSH2 0x10F1 JUMPI PUSH1 0x40 MLOAD PUSH3 0x461BCD PUSH1 0xE5 SHL DUP2 MSTORE PUSH1 0x20 PUSH1 0x4 DUP3 ADD MSTORE PUSH1 0x19 PUSH1 0x24 DUP3 ADD MSTORE PUSH32 0x52656465656D20616D6F756E74206D757374206265203E203000000000000000 PUSH1 0x44 DUP3 ADD MSTORE PUSH1 0x64 ADD PUSH2 0x884 JUMP JUMPDEST CALLER PUSH1 0x0 SWAP1 DUP2 MSTORE PUSH1 0x20 DUP2 SWAP1 MSTORE PUSH1 0x40 SWAP1 KECCAK256 SLOAD DUP3 GT ISZERO PUSH2 0x1150 JUMPI PUSH1 0x40 MLOAD PUSH3 0x461BCD PUSH1 0xE5 SHL DUP2 MSTORE PUSH1 0x20 PUSH1 0x4 DUP3 ADD MSTORE PUSH1 0x18 PUSH1 0x24 DUP3 ADD MSTORE PUSH32 0x496E73756666696369656E742053504B2062616C616E63650000000000000000 PUSH1 0x44 DUP3 ADD MSTORE PUSH1 0x64 ADD PUSH2 0x884 JUMP JUMPDEST PUSH1 0x0 PUSH2 0x2710 PUSH1 0xD SLOAD DUP5 PUSH2 0x1163 SWAP2 SWAP1 PUSH2 0x1FAC JUMP JUMPDEST PUSH2 0x116D SWAP2 SWAP1 PUSH2 0x1FC3 JUMP JUMPDEST SWAP1 POP PUSH1 0x0 PUSH2 0x117B DUP3 DUP6 PUSH2 0x1F99 JUMP JUMPDEST SWAP1 POP PUSH2 0x1187 CALLER DUP6 PUSH2 0x1692 JUMP JUMPDEST DUP1 PUSH1 0x14 PUSH1 0x0 DUP3 DUP3 SLOAD PUSH2 0x1199 SWAP2 SWAP1 PUSH2 0x1FD7 JUMP JUMPDEST SWAP1 SWAP2 SSTORE POP POP PUSH1 0x40 MLOAD DUP5 DUP2 MSTORE CALLER SWAP1 PUSH32 0xFEA316818EA9BD45A84C80D6B51052F158353C2507294BD40B0C011782636720 SWAP1 PUSH1 0x20 ADD PUSH1 0x40 MLOAD DUP1 SWAP2 SUB SWAP1 LOG2 POP PUSH1 0x1 SWAP4 SWAP3 POP POP POP JUMP JUMPDEST PUSH1 0x0 SWAP2 DUP3 MSTORE PUSH1 0x6 PUSH1 0x20 SWAP1 DUP2 MSTORE PUSH1 0x40 DUP1 DUP5 KECCAK256 PUSH1 0x1 PUSH1 0x1 PUSH1 0xA0 SHL SUB SWAP4 SWAP1 SWAP4 AND DUP5 MSTORE SWAP2 SWAP1 MSTORE SWAP1 KECCAK256 SLOAD PUSH1 0xFF AND SWAP1 JUMP JUMPDEST PUSH1 0x60 PUSH1 0x4 DUP1 SLOAD PUSH2 0x765 SWAP1 PUSH2 0x1EAE JUMP JUMPDEST PUSH1 0x0 DUP1 PUSH1 0x8 SLOAD PUSH1 0x7 SLOAD PUSH2 0x122A SWAP2 SWAP1 PUSH2 0x1FD7 JUMP JUMPDEST SWAP1 POP PUSH1 0x0 PUSH1 0x8 SLOAD PUSH1 0x7 SLOAD GT PUSH2 0x1240 JUMPI PUSH1 0x0 PUSH2 0x1250 JUMP JUMPDEST PUSH1 0x8 SLOAD PUSH1 0x7 SLOAD PUSH2 0x1250 SWAP2 SWAP1 PUSH2 0x1F99 JUMP JUMPDEST SWAP1 POP DUP1 PUSH1 0xF SLOAD LT ISZERO DUP1 ISZERO PUSH2 0x1266 JUMPI POP DUP2 PUSH1 0xF SLOAD GT ISZERO JUMPDEST SWAP3 POP POP POP SWAP1 JUMP JUMPDEST PUSH1 0x0 CALLER PUSH2 0x7F6 DUP2 DUP6 DUP6 PUSH2 0x14A3 JUMP JUMPDEST PUSH1 0x0 DUP1 PUSH2 0x1290 DUP4 PUSH8 0xDE0B6B3A7640000 PUSH2 0x1FAC JUMP JUMPDEST SWAP1 POP PUSH1 0x0 PUSH2 0x2710 PUSH1 0xC SLOAD DUP4 PUSH2 0x12A5 SWAP2 SWAP1 PUSH2 0x1FAC JUMP JUMPDEST PUSH2 0x12AF SWAP2 SWAP1 PUSH2 0x1FC3 JUMP JUMPDEST SWAP1 POP PUSH2 0x12BB DUP2 DUP4 PUSH2 0x1F99 JUMP JUMPDEST SWAP5 SWAP4 POP POP POP POP JUMP JUMPDEST PUSH1 0x0 DUP3 DUP2 MSTORE PUSH1 0x6 PUSH1 0x20 MSTORE PUSH1 0x40 SWAP1 KECCAK256 PUSH1 0x1 ADD SLOAD PUSH2 0x12DE DUP2 PUSH2 0x1535 JUMP JUMPDEST PUSH2 0x9AE DUP4 DUP4 PUSH2 0x15D3 JUMP JUMPDEST PUSH1 0x0 PUSH2 0x1302 PUSH1 0x0 DUP1 MLOAD PUSH1 0x20 PUSH2 0x204F DUP4 CODECOPY DUP2 MLOAD SWAP2 MSTORE CALLER PUSH2 0x11DD JUMP JUMPDEST PUSH2 0x1346 JUMPI PUSH1 0x40 MLOAD PUSH3 0x461BCD PUSH1 0xE5 SHL DUP2 MSTORE PUSH1 0x20 PUSH1 0x4 DUP3 ADD MSTORE PUSH1 0x15 PUSH1 0x24 DUP3 ADD MSTORE PUSH21 0x4D7573742068617665204F5241434C455F524F4C45 PUSH1 0x58 SHL PUSH1 0x44 DUP3 ADD MSTORE PUSH1 0x64 ADD PUSH2 0x884 JUMP JUMPDEST PUSH1 0x0 DUP3 GT PUSH2 0x138F JUMPI PUSH1 0x40 MLOAD PUSH3 0x461BCD PUSH1 0xE5 SHL DUP2 MSTORE PUSH1 0x20 PUSH1 0x4 DUP3 ADD MSTORE PUSH1 0x16 PUSH1 0x24 DUP3 ADD MSTORE PUSH22 0x5072696365206D75737420626520706F736974697665 PUSH1 0x50 SHL PUSH1 0x44 DUP3 ADD MSTORE PUSH1 0x64 ADD PUSH2 0x884 JUMP JUMPDEST PUSH1 0xF DUP3 SWAP1 SSTORE TIMESTAMP PUSH1 0x10 DUP2 SWAP1 SSTORE PUSH1 0x40 DUP1 MLOAD DUP5 DUP2 MSTORE PUSH1 0x20 DUP2 ADD SWAP3 SWAP1 SWAP3 MSTORE PUSH32 0x7BB53A16F0A956EC70E3ABA1C9DCDD953DE741292A17F213B0D38D24D6F476BA SWAP2 ADD PUSH1 0x40 MLOAD DUP1 SWAP2 SUB SWAP1 LOG1 PUSH2 0x750 DUP3 PUSH2 0x1795 JUMP JUMPDEST SWAP2 SWAP1 POP JUMP JUMPDEST PUSH2 0x13EA PUSH2 0x1502 JUMP JUMPDEST PUSH1 0x1 PUSH1 0x1 PUSH1 0xA0 SHL SUB DUP2 AND PUSH2 0x1414 JUMPI PUSH1 0x40 MLOAD PUSH4 0x1E4FBDF7 PUSH1 0xE0 SHL DUP2 MSTORE PUSH1 0x0 PUSH1 0x4 DUP3 ADD MSTORE PUSH1 0x24 ADD PUSH2 0x884 JUMP JUMPDEST PUSH2 0xBC6 DUP2 PUSH2 0x16FE JUMP JUMPDEST PUSH2 0xBA5 DUP4 DUP4 DUP4 PUSH1 0x1 PUSH2 0x19E5 JUMP JUMPDEST PUSH1 0x1 PUSH1 0x1 PUSH1 0xA0 SHL SUB DUP4 DUP2 AND PUSH1 0x0 SWAP1 DUP2 MSTORE PUSH1 0x1 PUSH1 0x20 SWAP1 DUP2 MSTORE PUSH1 0x40 DUP1 DUP4 KECCAK256 SWAP4 DUP7 AND DUP4 MSTORE SWAP3 SWAP1 MSTORE KECCAK256 SLOAD PUSH1 0x0 NOT DUP2 LT ISZERO PUSH2 0x9AE JUMPI DUP2 DUP2 LT ISZERO PUSH2 0x1494 JUMPI PUSH1 0x40 MLOAD PUSH4 0x7DC7A0D9 PUSH1 0xE1 SHL DUP2 MSTORE PUSH1 0x1 PUSH1 0x1 PUSH1 0xA0 SHL SUB DUP5 AND PUSH1 0x4 DUP3 ADD MSTORE PUSH1 0x24 DUP2 ADD DUP3 SWAP1 MSTORE PUSH1 0x44 DUP2 ADD DUP4 SWAP1 MSTORE PUSH1 0x64 ADD PUSH2 0x884 JUMP JUMPDEST PUSH2 0x9AE DUP5 DUP5 DUP5 DUP5 SUB PUSH1 0x0 PUSH2 0x19E5 JUMP JUMPDEST PUSH1 0x1 PUSH1 0x1 PUSH1 0xA0 SHL SUB DUP4 AND PUSH2 0x14CD JUMPI PUSH1 0x40 MLOAD PUSH4 0x4B637E8F PUSH1 0xE1 SHL DUP2 MSTORE PUSH1 0x0 PUSH1 0x4 DUP3 ADD MSTORE PUSH1 0x24 ADD PUSH2 0x884 JUMP JUMPDEST PUSH1 0x1 PUSH1 0x1 PUSH1 0xA0 SHL SUB DUP3 AND PUSH2 0x14F7 JUMPI PUSH1 0x40 MLOAD PUSH4 0xEC442F05 PUSH1 0xE0 SHL DUP2 MSTORE PUSH1 0x0 PUSH1 0x4 DUP3 ADD MSTORE PUSH1 0x24 ADD PUSH2 0x884 JUMP JUMPDEST PUSH2 0xBA5 DUP4 DUP4 DUP4 PUSH2 0x1ABA JUMP JUMPDEST PUSH1 0x5 SLOAD PUSH1 0x1 PUSH1 0x1 PUSH1 0xA0 SHL SUB PUSH2 0x100 SWAP1 SWAP2 DIV AND CALLER EQ PUSH2 0xBBA JUMPI PUSH1 0x40 MLOAD PUSH4 0x118CDAA7 PUSH1 0xE0 SHL DUP2 MSTORE CALLER PUSH1 0x4 DUP3 ADD MSTORE PUSH1 0x24 ADD PUSH2 0x884 JUMP JUMPDEST PUSH2 0xBC6 DUP2 CALLER PUSH2 0x1ACD JUMP JUMPDEST PUSH1 0x0 PUSH2 0x154B DUP4 DUP4 PUSH2 0x11DD JUMP JUMPDEST PUSH2 0x15CB JUMPI PUSH1 0x0 DUP4 DUP2 MSTORE PUSH1 0x6 PUSH1 0x20 SWAP1 DUP2 MSTORE PUSH1 0x40 DUP1 DUP4 KECCAK256 PUSH1 0x1 PUSH1 0x1 PUSH1 0xA0 SHL SUB DUP7 AND DUP5 MSTORE SWAP1 SWAP2 MSTORE SWAP1 KECCAK256 DUP1 SLOAD PUSH1 0xFF NOT AND PUSH1 0x1 OR SWAP1 SSTORE PUSH2 0x1583 CALLER SWAP1 JUMP JUMPDEST PUSH1 0x1 PUSH1 0x1 PUSH1 0xA0 SHL SUB AND DUP3 PUSH1 0x1 PUSH1 0x1 PUSH1 0xA0 SHL SUB AND DUP5 PUSH32 0x2F8788117E7EFF1D82E926EC794901D17C78024A50270940304540A733656F0D PUSH1 0x40 MLOAD PUSH1 0x40 MLOAD DUP1 SWAP2 SUB SWAP1 LOG4 POP PUSH1 0x1 PUSH2 0x750 JUMP JUMPDEST POP PUSH1 0x0 PUSH2 0x750 JUMP JUMPDEST PUSH1 0x0 PUSH2 0x15DF DUP4 DUP4 PUSH2 0x11DD JUMP JUMPDEST ISZERO PUSH2 0x15CB JUMPI PUSH1 0x0 DUP4 DUP2 MSTORE PUSH1 0x6 PUSH1 0x20 SWAP1 DUP2 MSTORE PUSH1 0x40 DUP1 DUP4 KECCAK256 PUSH1 0x1 PUSH1 0x1 PUSH1 0xA0 SHL SUB DUP7 AND DUP1 DUP6 MSTORE SWAP3 MSTORE DUP1 DUP4 KECCAK256 DUP1 SLOAD PUSH1 0xFF NOT AND SWAP1 SSTORE MLOAD CALLER SWAP3 DUP7 SWAP2 PUSH32 0xF6391F5C32D9C69D2A47EA670B442974B53935D1EDC7FD64EB21E047A839171B SWAP2 SWAP1 LOG4 POP PUSH1 0x1 PUSH2 0x750 JUMP JUMPDEST PUSH2 0x1648 PUSH2 0x1B06 JUMP JUMPDEST PUSH1 0x5 DUP1 SLOAD PUSH1 0xFF NOT AND SWAP1 SSTORE PUSH32 0x5DB9EE0A495BF2E6FF9C91A7834C1BA4FDD244A5E8AA4E537BD38AEAE4B073AA CALLER JUMPDEST PUSH1 0x40 MLOAD PUSH1 0x1 PUSH1 0x1 PUSH1 0xA0 SHL SUB SWAP1 SWAP2 AND DUP2 MSTORE PUSH1 0x20 ADD PUSH1 0x40 MLOAD DUP1 SWAP2 SUB SWAP1 LOG1 JUMP JUMPDEST PUSH1 0x1 PUSH1 0x1 PUSH1 0xA0 SHL SUB DUP3 AND PUSH2 0x16BC JUMPI PUSH1 0x40 MLOAD PUSH4 0x4B637E8F PUSH1 0xE1 SHL DUP2 MSTORE PUSH1 0x0 PUSH1 0x4 DUP3 ADD MSTORE PUSH1 0x24 ADD PUSH2 0x884 JUMP JUMPDEST PUSH2 0x96D DUP3 PUSH1 0x0 DUP4 PUSH2 0x1ABA JUMP JUMPDEST PUSH1 0x1 PUSH1 0x1 PUSH1 0xA0 SHL SUB DUP3 AND PUSH2 0x16F2 JUMPI PUSH1 0x40 MLOAD PUSH4 0xEC442F05 PUSH1 0xE0 SHL DUP2 MSTORE PUSH1 0x0 PUSH1 0x4 DUP3 ADD MSTORE PUSH1 0x24 ADD PUSH2 0x884 JUMP JUMPDEST PUSH2 0x96D PUSH1 0x0 DUP4 DUP4 PUSH2 0x1ABA JUMP JUMPDEST PUSH1 0x5 DUP1 SLOAD PUSH1 0x1 PUSH1 0x1 PUSH1 0xA0 SHL SUB DUP4 DUP2 AND PUSH2 0x100 DUP2 DUP2 MUL PUSH2 0x100 PUSH1 0x1 PUSH1 0xA8 SHL SUB NOT DUP6 AND OR SWAP1 SWAP5 SSTORE PUSH1 0x40 MLOAD SWAP4 SWAP1 SWAP3 DIV AND SWAP2 DUP3 SWAP1 PUSH32 0x8BE0079C531659141344CD1FD0A4F28419497F9722A3DAAFE3B4186F6B6457E0 SWAP1 PUSH1 0x0 SWAP1 LOG3 POP POP JUMP JUMPDEST PUSH2 0x1760 PUSH2 0x1B29 JUMP JUMPDEST PUSH1 0x5 DUP1 SLOAD PUSH1 0xFF NOT AND PUSH1 0x1 OR SWAP1 SSTORE PUSH32 0x62E78CEA01BEE320CD4E420270B5EA74000D11B0C9F74754EBDBFC544B05A258 PUSH2 0x1675 CALLER SWAP1 JUMP JUMPDEST PUSH1 0x0 DUP1 PUSH1 0x7 SLOAD DUP4 PUSH2 0x17A6 SWAP2 SWAP1 PUSH2 0x1EFE JUMP JUMPDEST SWAP1 POP PUSH1 0x0 DUP1 PUSH8 0xDE0B6B3A7640000 PUSH1 0x9 SLOAD DUP5 PUSH2 0x17C2 SWAP2 SWAP1 PUSH2 0x1F25 JUMP JUMPDEST PUSH2 0x17CC SWAP2 SWAP1 PUSH2 0x1F6B JUMP JUMPDEST SWAP1 POP DUP3 PUSH1 0xB PUSH1 0x0 DUP3 DUP3 SLOAD PUSH2 0x17E0 SWAP2 SWAP1 PUSH2 0x1FEA JUMP JUMPDEST SWAP1 SWAP2 SSTORE POP POP PUSH1 0xB SLOAD PUSH8 0x8AC7230489E80000 SLT ISZERO PUSH2 0x1804 JUMPI PUSH8 0x8AC7230489E80000 PUSH1 0xB SSTORE JUMPDEST PUSH8 0x8AC7230489E7FFFF NOT PUSH1 0xB SLOAD SLT ISZERO PUSH2 0x1825 JUMPI PUSH8 0x8AC7230489E7FFFF NOT PUSH1 0xB SSTORE JUMPDEST PUSH1 0x0 PUSH8 0xDE0B6B3A7640000 PUSH1 0xA SLOAD PUSH1 0xB SLOAD PUSH2 0x1840 SWAP2 SWAP1 PUSH2 0x1F25 JUMP JUMPDEST PUSH2 0x184A SWAP2 SWAP1 PUSH2 0x1F6B JUMP JUMPDEST SWAP1 POP PUSH1 0x0 PUSH2 0x1858 DUP3 DUP5 PUSH2 0x1FEA JUMP JUMPDEST SWAP1 POP PUSH1 0x0 DUP2 SGT ISZERO PUSH2 0x190D JUMPI DUP1 PUSH1 0x0 PUSH1 0x64 PUSH2 0x1871 PUSH1 0x2 SLOAD SWAP1 JUMP JUMPDEST PUSH2 0x187B SWAP2 SWAP1 PUSH2 0x1FC3 JUMP JUMPDEST SWAP1 POP PUSH1 0x0 DUP3 GT DUP1 ISZERO PUSH2 0x188D JUMPI POP PUSH1 0x0 DUP2 GT JUMPDEST ISZERO PUSH2 0x1906 JUMPI PUSH1 0x0 DUP2 DUP4 GT PUSH2 0x18A1 JUMPI DUP3 PUSH2 0x18A3 JUMP JUMPDEST DUP2 JUMPDEST ADDRESS PUSH1 0x0 SWAP1 DUP2 MSTORE PUSH1 0x20 DUP2 SWAP1 MSTORE PUSH1 0x40 SWAP1 KECCAK256 SLOAD SWAP1 SWAP2 POP DUP2 GT PUSH2 0x1904 JUMPI PUSH2 0x18C6 ADDRESS DUP3 PUSH2 0x1692 JUMP JUMPDEST PUSH1 0x40 DUP1 MLOAD DUP12 DUP2 MSTORE PUSH1 0x0 PUSH1 0x20 DUP3 ADD MSTORE PUSH32 0x3E7A6F522C58183314240A03A907F09792F88BE6F520F6B273E3E67865764E30 SWAP2 ADD PUSH1 0x40 MLOAD DUP1 SWAP2 SUB SWAP1 LOG1 PUSH1 0x1 SWAP7 POP JUMPDEST POP JUMPDEST POP POP PUSH2 0x19DA JUMP JUMPDEST PUSH1 0x0 DUP2 SLT ISZERO PUSH2 0x19DA JUMPI PUSH1 0x0 PUSH2 0x1921 DUP3 PUSH2 0x2012 JUMP JUMPDEST SWAP1 POP PUSH1 0x0 PUSH1 0x64 PUSH2 0x1930 PUSH1 0x2 SLOAD SWAP1 JUMP JUMPDEST PUSH1 0xE SLOAD PUSH2 0x193D SWAP2 SWAP1 PUSH2 0x1F99 JUMP JUMPDEST PUSH2 0x1947 SWAP2 SWAP1 PUSH2 0x1FC3 JUMP JUMPDEST SWAP1 POP PUSH1 0x0 DUP3 GT DUP1 ISZERO PUSH2 0x1959 JUMPI POP PUSH1 0x0 DUP2 GT JUMPDEST ISZERO PUSH2 0x19D7 JUMPI PUSH1 0x0 DUP2 DUP4 GT PUSH2 0x196D JUMPI DUP3 PUSH2 0x196F JUMP JUMPDEST DUP2 JUMPDEST SWAP1 POP PUSH1 0xE SLOAD DUP2 PUSH2 0x197E PUSH1 0x2 SLOAD SWAP1 JUMP JUMPDEST PUSH2 0x1988 SWAP2 SWAP1 PUSH2 0x1FD7 JUMP JUMPDEST GT PUSH2 0x19D5 JUMPI PUSH2 0x1997 ADDRESS DUP3 PUSH2 0x16C8 JUMP JUMPDEST PUSH1 0x40 DUP1 MLOAD DUP12 DUP2 MSTORE PUSH1 0x1 PUSH1 0x20 DUP3 ADD MSTORE PUSH32 0x3E7A6F522C58183314240A03A907F09792F88BE6F520F6B273E3E67865764E30 SWAP2 ADD PUSH1 0x40 MLOAD DUP1 SWAP2 SUB SWAP1 LOG1 PUSH1 0x1 SWAP7 POP JUMPDEST POP JUMPDEST POP POP JUMPDEST POP SWAP2 SWAP6 SWAP5 POP POP POP POP POP JUMP JUMPDEST PUSH1 0x1 PUSH1 0x1 PUSH1 0xA0 SHL SUB DUP5 AND PUSH2 0x1A0F JUMPI PUSH1 0x40 MLOAD PUSH4 0xE602DF05 PUSH1 0xE0 SHL DUP2 MSTORE PUSH1 0x0 PUSH1 0x4 DUP3 ADD MSTORE PUSH1 0x24 ADD PUSH2 0x884 JUMP JUMPDEST PUSH1 0x1 PUSH1 0x1 PUSH1 0xA0 SHL SUB DUP4 AND PUSH2 0x1A39 JUMPI PUSH1 0x40 MLOAD PUSH4 0x4A1406B1 PUSH1 0xE1 SHL DUP2 MSTORE PUSH1 0x0 PUSH1 0x4 DUP3 ADD MSTORE PUSH1 0x24 ADD PUSH2 0x884 JUMP JUMPDEST PUSH1 0x1 PUSH1 0x1 PUSH1 0xA0 SHL SUB DUP1 DUP6 AND PUSH1 0x0 SWAP1 DUP2 MSTORE PUSH1 0x1 PUSH1 0x20 SWAP1 DUP2 MSTORE PUSH1 0x40 DUP1 DUP4 KECCAK256 SWAP4 DUP8 AND DUP4 MSTORE SWAP3 SWAP1 MSTORE KECCAK256 DUP3 SWAP1 SSTORE DUP1 ISZERO PUSH2 0x9AE JUMPI DUP3 PUSH1 0x1 PUSH1 0x1 PUSH1 0xA0 SHL SUB AND DUP5 PUSH1 0x1 PUSH1 0x1 PUSH1 0xA0 SHL SUB AND PUSH32 0x8C5BE1E5EBEC7D5BD14F71427D1E84F3DD0314C0F7B2291E5B200AC8C7C3B925 DUP5 PUSH1 0x40 MLOAD PUSH2 0x1AAC SWAP2 DUP2 MSTORE PUSH1 0x20 ADD SWAP1 JUMP JUMPDEST PUSH1 0x40 MLOAD DUP1 SWAP2 SUB SWAP1 LOG3 POP POP POP POP JUMP JUMPDEST PUSH2 0x1AC2 PUSH2 0x1B29 JUMP JUMPDEST PUSH2 0xBA5 DUP4 DUP4 DUP4 PUSH2 0x1B4D JUMP JUMPDEST PUSH2 0x1AD7 DUP3 DUP3 PUSH2 0x11DD JUMP JUMPDEST PUSH2 0x96D JUMPI PUSH1 0x40 MLOAD PUSH4 0xE2517D3F PUSH1 0xE0 SHL DUP2 MSTORE PUSH1 0x1 PUSH1 0x1 PUSH1 0xA0 SHL SUB DUP3 AND PUSH1 0x4 DUP3 ADD MSTORE PUSH1 0x24 DUP2 ADD DUP4 SWAP1 MSTORE PUSH1 0x44 ADD PUSH2 0x884 JUMP JUMPDEST PUSH1 0x5 SLOAD PUSH1 0xFF AND PUSH2 0xBBA JUMPI PUSH1 0x40 MLOAD PUSH4 0x8DFC202B PUSH1 0xE0 SHL DUP2 MSTORE PUSH1 0x4 ADD PUSH1 0x40 MLOAD DUP1 SWAP2 SUB SWAP1 REVERT JUMPDEST PUSH1 0x5 SLOAD PUSH1 0xFF AND ISZERO PUSH2 0xBBA JUMPI PUSH1 0x40 MLOAD PUSH4 0xD93C0665 PUSH1 0xE0 SHL DUP2 MSTORE PUSH1 0x4 ADD PUSH1 0x40 MLOAD DUP1 SWAP2 SUB SWAP1 REVERT JUMPDEST PUSH2 0x1B55 PUSH2 0x1B29 JUMP JUMPDEST PUSH2 0xBA5 DUP4 DUP4 DUP4 PUSH1 0x1 PUSH1 0x1 PUSH1 0xA0 SHL SUB DUP4 AND PUSH2 0x1B86 JUMPI DUP1 PUSH1 0x2 PUSH1 0x0 DUP3 DUP3 SLOAD PUSH2 0x1B7B SWAP2 SWAP1 PUSH2 0x1FD7 JUMP JUMPDEST SWAP1 SWAP2 SSTORE POP PUSH2 0x1BF8 SWAP1 POP JUMP JUMPDEST PUSH1 0x1 PUSH1 0x1 PUSH1 0xA0 SHL SUB DUP4 AND PUSH1 0x0 SWAP1 DUP2 MSTORE PUSH1 0x20 DUP2 SWAP1 MSTORE PUSH1 0x40 SWAP1 KECCAK256 SLOAD DUP2 DUP2 LT ISZERO PUSH2 0x1BD9 JUMPI PUSH1 0x40 MLOAD PUSH4 0x391434E3 PUSH1 0xE2 SHL DUP2 MSTORE PUSH1 0x1 PUSH1 0x1 PUSH1 0xA0 SHL SUB DUP6 AND PUSH1 0x4 DUP3 ADD MSTORE PUSH1 0x24 DUP2 ADD DUP3 SWAP1 MSTORE PUSH1 0x44 DUP2 ADD DUP4 SWAP1 MSTORE PUSH1 0x64 ADD PUSH2 0x884 JUMP JUMPDEST PUSH1 0x1 PUSH1 0x1 PUSH1 0xA0 SHL SUB DUP5 AND PUSH1 0x0 SWAP1 DUP2 MSTORE PUSH1 0x20 DUP2 SWAP1 MSTORE PUSH1 0x40 SWAP1 KECCAK256 SWAP1 DUP3 SWAP1 SUB SWAP1 SSTORE JUMPDEST PUSH1 0x1 PUSH1 0x1 PUSH1 0xA0 SHL SUB DUP3 AND PUSH2 0x1C14 JUMPI PUSH1 0x2 DUP1 SLOAD DUP3 SWAP1 SUB SWAP1 SSTORE PUSH2 0x1C33 JUMP JUMPDEST PUSH1 0x1 PUSH1 0x1 PUSH1 0xA0 SHL SUB DUP3 AND PUSH1 0x0 SWAP1 DUP2 MSTORE PUSH1 0x20 DUP2 SWAP1 MSTORE PUSH1 0x40 SWAP1 KECCAK256 DUP1 SLOAD DUP3 ADD SWAP1 SSTORE JUMPDEST DUP2 PUSH1 0x1 PUSH1 0x1 PUSH1 0xA0 SHL SUB AND DUP4 PUSH1 0x1 PUSH1 0x1 PUSH1 0xA0 SHL SUB AND PUSH32 0xDDF252AD1BE2C89B69C2B068FC378DAA952BA7F163C4A11628F55A4DF523B3EF DUP4 PUSH1 0x40 MLOAD PUSH2 0x1C78 SWAP2 DUP2 MSTORE PUSH1 0x20 ADD SWAP1 JUMP JUMPDEST PUSH1 0x40 MLOAD DUP1 SWAP2 SUB SWAP1 LOG3 POP POP POP JUMP JUMPDEST PUSH1 0x0 PUSH1 0x20 DUP3 DUP5 SUB SLT ISZERO PUSH2 0x1C97 JUMPI PUSH1 0x0 DUP1 REVERT JUMPDEST DUP2 CALLDATALOAD PUSH1 0x1 PUSH1 0x1 PUSH1 0xE0 SHL SUB NOT DUP2 AND DUP2 EQ PUSH2 0x1CAF JUMPI PUSH1 0x0 DUP1 REVERT JUMPDEST SWAP4 SWAP3 POP POP POP JUMP JUMPDEST PUSH1 0x0 PUSH1 0x20 DUP1 DUP4 MSTORE DUP4 MLOAD DUP1 DUP3 DUP6 ADD MSTORE PUSH1 0x0 JUMPDEST DUP2 DUP2 LT ISZERO PUSH2 0x1CE3 JUMPI DUP6 DUP2 ADD DUP4 ADD MLOAD DUP6 DUP3 ADD PUSH1 0x40 ADD MSTORE DUP3 ADD PUSH2 0x1CC7 JUMP JUMPDEST POP PUSH1 0x0 PUSH1 0x40 DUP3 DUP7 ADD ADD MSTORE PUSH1 0x40 PUSH1 0x1F NOT PUSH1 0x1F DUP4 ADD AND DUP6 ADD ADD SWAP3 POP POP POP SWAP3 SWAP2 POP POP JUMP JUMPDEST DUP1 CALLDATALOAD PUSH1 0x1 PUSH1 0x1 PUSH1 0xA0 SHL SUB DUP2 AND DUP2 EQ PUSH2 0x13DD JUMPI PUSH1 0x0 DUP1 REVERT JUMPDEST PUSH1 0x0 DUP1 PUSH1 0x40 DUP4 DUP6 SUB SLT ISZERO PUSH2 0x1D2E JUMPI PUSH1 0x0 DUP1 REVERT JUMPDEST PUSH2 0x1D37 DUP4 PUSH2 0x1D04 JUMP JUMPDEST SWAP5 PUSH1 0x20 SWAP4 SWAP1 SWAP4 ADD CALLDATALOAD SWAP4 POP POP POP JUMP JUMPDEST DUP1 CALLDATALOAD DUP1 ISZERO ISZERO DUP2 EQ PUSH2 0x13DD JUMPI PUSH1 0x0 DUP1 REVERT JUMPDEST PUSH1 0x0 PUSH1 0x20 DUP3 DUP5 SUB SLT ISZERO PUSH2 0x1D67 JUMPI PUSH1 0x0 DUP1 REVERT JUMPDEST PUSH2 0x1CAF DUP3 PUSH2 0x1D45 JUMP JUMPDEST PUSH1 0x0 DUP1 PUSH1 0x0 PUSH1 0x60 DUP5 DUP7 SUB SLT ISZERO PUSH2 0x1D85 JUMPI PUSH1 0x0 DUP1 REVERT JUMPDEST PUSH2 0x1D8E DUP5 PUSH2 0x1D04 JUMP JUMPDEST SWAP3 POP PUSH2 0x1D9C PUSH1 0x20 DUP6 ADD PUSH2 0x1D04 JUMP JUMPDEST SWAP2 POP PUSH1 0x40 DUP5 ADD CALLDATALOAD SWAP1 POP SWAP3 POP SWAP3 POP SWAP3 JUMP JUMPDEST PUSH1 0x0 PUSH1 0x20 DUP3 DUP5 SUB SLT ISZERO PUSH2 0x1DBE JUMPI PUSH1 0x0 DUP1 REVERT JUMPDEST POP CALLDATALOAD SWAP2 SWAP1 POP JUMP JUMPDEST PUSH1 0x0 DUP1 PUSH1 0x40 DUP4 DUP6 SUB SLT ISZERO PUSH2 0x1DD8 JUMPI PUSH1 0x0 DUP1 REVERT JUMPDEST PUSH2 0x1DE1 DUP4 PUSH2 0x1D04 JUMP JUMPDEST SWAP2 POP PUSH2 0x1DEF PUSH1 0x20 DUP5 ADD PUSH2 0x1D45 JUMP JUMPDEST SWAP1 POP SWAP3 POP SWAP3 SWAP1 POP JUMP JUMPDEST PUSH1 0x0 DUP1 PUSH1 0x40 DUP4 DUP6 SUB SLT ISZERO PUSH2 0x1E0B JUMPI PUSH1 0x0 DUP1 REVERT JUMPDEST DUP3 CALLDATALOAD SWAP2 POP PUSH2 0x1DEF PUSH1 0x20 DUP5 ADD PUSH2 0x1D04 JUMP JUMPDEST PUSH1 0x0 DUP1 PUSH1 0x0 PUSH1 0x60 DUP5 DUP7 SUB SLT ISZERO PUSH2 0x1E30 JUMPI PUSH1 0x0 DUP1 REVERT JUMPDEST POP POP DUP2 CALLDATALOAD SWAP4 PUSH1 0x20 DUP4 ADD CALLDATALOAD SWAP4 POP PUSH1 0x40 SWAP1 SWAP3 ADD CALLDATALOAD SWAP2 SWAP1 POP JUMP JUMPDEST PUSH1 0x0 PUSH1 0x20 DUP3 DUP5 SUB SLT ISZERO PUSH2 0x1E59 JUMPI PUSH1 0x0 DUP1 REVERT JUMPDEST PUSH2 0x1CAF DUP3 PUSH2 0x1D04 JUMP JUMPDEST PUSH1 0x0 DUP1 PUSH1 0x40 DUP4 DUP6 SUB SLT ISZERO PUSH2 0x1E75 JUMPI PUSH1 0x0 DUP1 REVERT JUMPDEST POP POP DUP1 CALLDATALOAD SWAP3 PUSH1 0x20 SWAP1 SWAP2 ADD CALLDATALOAD SWAP2 POP JUMP JUMPDEST PUSH1 0x0 DUP1 PUSH1 0x40 DUP4 DUP6 SUB SLT ISZERO PUSH2 0x1E97 JUMPI PUSH1 0x0 DUP1 REVERT JUMPDEST PUSH2 0x1EA0 DUP4 PUSH2 0x1D04 JUMP JUMPDEST SWAP2 POP PUSH2 0x1DEF PUSH1 0x20 DUP5 ADD PUSH2 0x1D04 JUMP JUMPDEST PUSH1 0x1 DUP2 DUP2 SHR SWAP1 DUP3 AND DUP1 PUSH2 0x1EC2 JUMPI PUSH1 0x7F DUP3 AND SWAP2 POP JUMPDEST PUSH1 0x20 DUP3 LT DUP2 SUB PUSH2 0x1EE2 JUMPI PUSH4 0x4E487B71 PUSH1 0xE0 SHL PUSH1 0x0 MSTORE PUSH1 0x22 PUSH1 0x4 MSTORE PUSH1 0x24 PUSH1 0x0 REVERT JUMPDEST POP SWAP2 SWAP1 POP JUMP JUMPDEST PUSH4 0x4E487B71 PUSH1 0xE0 SHL PUSH1 0x0 MSTORE PUSH1 0x11 PUSH1 0x4 MSTORE PUSH1 0x24 PUSH1 0x0 REVERT JUMPDEST DUP2 DUP2 SUB PUSH1 0x0 DUP4 SLT DUP1 ISZERO DUP4 DUP4 SGT AND DUP4 DUP4 SLT DUP3 AND OR ISZERO PUSH2 0x1F1E JUMPI PUSH2 0x1F1E PUSH2 0x1EE8 JUMP JUMPDEST POP SWAP3 SWAP2 POP POP JUMP JUMPDEST DUP1 DUP3 MUL PUSH1 0x0 DUP3 SLT PUSH1 0x1 PUSH1 0xFF SHL DUP5 EQ AND ISZERO PUSH2 0x1F41 JUMPI PUSH2 0x1F41 PUSH2 0x1EE8 JUMP JUMPDEST DUP2 DUP2 SDIV DUP4 EQ DUP3 ISZERO OR PUSH2 0x750 JUMPI PUSH2 0x750 PUSH2 0x1EE8 JUMP JUMPDEST PUSH4 0x4E487B71 PUSH1 0xE0 SHL PUSH1 0x0 MSTORE PUSH1 0x12 PUSH1 0x4 MSTORE PUSH1 0x24 PUSH1 0x0 REVERT JUMPDEST PUSH1 0x0 DUP3 PUSH2 0x1F7A JUMPI PUSH2 0x1F7A PUSH2 0x1F55 JUMP JUMPDEST PUSH1 0x1 PUSH1 0xFF SHL DUP3 EQ PUSH1 0x0 NOT DUP5 EQ AND ISZERO PUSH2 0x1F94 JUMPI PUSH2 0x1F94 PUSH2 0x1EE8 JUMP JUMPDEST POP SDIV SWAP1 JUMP JUMPDEST DUP2 DUP2 SUB DUP2 DUP2 GT ISZERO PUSH2 0x750 JUMPI PUSH2 0x750 PUSH2 0x1EE8 JUMP JUMPDEST DUP1 DUP3 MUL DUP2 ISZERO DUP3 DUP3 DIV DUP5 EQ OR PUSH2 0x750 JUMPI PUSH2 0x750 PUSH2 0x1EE8 JUMP JUMPDEST PUSH1 0x0 DUP3 PUSH2 0x1FD2 JUMPI PUSH2 0x1FD2 PUSH2 0x1F55 JUMP JUMPDEST POP DIV SWAP1 JUMP JUMPDEST DUP1 DUP3 ADD DUP1 DUP3 GT ISZERO PUSH2 0x750 JUMPI PUSH2 0x750 PUSH2 0x1EE8 JUMP JUMPDEST DUP1 DUP3 ADD DUP3 DUP2 SLT PUSH1 0x0 DUP4 SLT DUP1 ISZERO DUP3 AND DUP3 ISZERO DUP3 AND OR ISZERO PUSH2 0x200A JUMPI PUSH2 0x200A PUSH2 0x1EE8 JUMP JUMPDEST POP POP SWAP3 SWAP2 POP POP JUMP JUMPDEST PUSH1 0x0 PUSH1 0x1 PUSH1 0xFF SHL DUP3 ADD PUSH2 0x2027 JUMPI PUSH2 0x2027 PUSH2 0x1EE8 JUMP JUMPDEST POP PUSH1 0x0 SUB SWAP1 JUMP INVALID GASPRICE PUSH5 0x504F0BC0C3 CALLDATALOAD 0xE2 0xAE 0xCB PUSH25 0x638A257E0351A3FE0370861FD54EE4190B92093368E79A7BF1 0xE0 0xBC GASLIMIT 0xD0 LOG3 ADDRESS 0xC5 PUSH20 0xBC367F9CF464FD326078812F301165FBDA4EF1A2 PUSH5 0x6970667358 0x22 SLT KECCAK256 SHL 0xA7 EXTCODECOPY SIGNEXTEND 0x2B LOG3 0xEA DUP6 PUSH26 0x19A72E05A491E7FB0B711F4402259E81E72D6A6FC7004D64736F PUSH13 0x63430008140033000000000000 "},"methodIdentifiers":{"DEFAULT_ADMIN_ROLE()":"a217fddf","MINTER_ROLE()":"d5391393","ORACLE_ROLE()":"07e2cea5","PAUSER_ROLE()":"e63ab1e9","allowance(address,address)":"dd62ed3e","approve(address,uint256)":"095ea7b3","balanceOf(address)":"70a08231","burn(uint256)":"42966c68","burnFrom(address,uint256)":"79cc6790","cumulativeSurplusKwh()":"8cb545dd","decimals()":"313ce567","estimateMintAmount(uint256)":"b5fbc7a0","getPegDeviation()":"113cd6e8","getReserveRatio()":"56b6d0d5","getRoleAdmin(bytes32)":"248a9ca3","grantRole(bytes32,address)":"2f2ff15d","gridStressed()":"1bc9a450","hasRole(bytes32,address)":"91d14854","initializeDAOGovernance(address)":"4e0c21c3","integralError()":"9086169b","integralGain()":"9cf5b4d6","isPegStable()":"9648c229","lastOraclePrice()":"349f7173","lastOracleUpdate()":"b609d0e6","minReserveMarginPercent()":"86952d00","mintFromSurplus(uint256,address)":"4e3b95fb","mintingFee()":"5a64ad95","name()":"06fdde03","oracleStalenessThreshold()":"1f45d0e4","owner()":"8da5cb5b","pause()":"8456cb59","paused()":"5c975abb","pegBand()":"9ad70cc2","pegTarget()":"876daf7e","proportionalGain()":"3011f223","redeemForEnergy(uint256)":"88174060","redemptionFee()":"458f5815","renounceOwnership()":"715018a6","renounceRole(bytes32,address)":"36568abe","revokeRole(bytes32,address)":"d547741f","setGridStressed(bool)":"21e12b13","setOracleRole(address,bool)":"26cfb7a4","supplyCap()":"8f770ad0","supportsInterface(bytes4)":"01ffc9a7","symbol()":"95d89b41","totalRedeemed()":"f35dad40","totalSupply()":"18160ddd","transfer(address,uint256)":"a9059cbb","transferFrom(address,address,uint256)":"23b872dd","transferOwnership(address)":"f2fde38b","unpause()":"3f4ba83a","updateControlParameters(uint256,uint256,uint256)":"2f51cce0","updateFees(uint256,uint256)":"6db79437","updateOraclePriceAndAdjust(uint256)":"e0e1141e","usdcReserve()":"6a5809cc"}}}}}